:020000040800F2
:10300000501D0020453100086F3C000809370008BA
:1030100000000000000000000000000000000000B0
:10302000000000000000000000000000634A0008EB
:10303000000000000000000003310008094B0008F8
:103040005731000857310008573100085731000840
:103050005731000857310008573100085731000830
:103060005731000857310008573100085731000820
:10307000573100085731000857310008A94B0008A4
:10308000ED4B0008573100080000000057310008E0
:1030900057310008573100085731000857310008F0
:1030A000573100085731000857310008094D000812
:1030B000294D000800000000573100080000000002
:1030C0000348854600F0D6F900480047F56500083A
:1030D000501D0020064B19680868203080F30988CD
:1030E000022080F314883FBCAE4662B600BD0000EB
:1030F00058010020EFF3108072B6704780F31088FB
:103100007047EFF309800E4B1A6820381060F0C04A
:1031100044464D4656465F46F0C008B572B605F0C7
:10312000EBF962B60CBC116808681030F0C8A04614
:10313000A946B246BB4680F309882038F0C8184734
:10314000580100200448804704480047FEE7FEE796
:10315000FEE7FEE7FEE7FEE72D4B0008C130000862
:1031600030B50B46014600202022012409E00D461F
:10317000D5409D4205D31D469540491B25469540A7
:1031800040191546521E002DF1DC30BD70B50024EB
:103190002546002801DA01244042002901DA0125F0
:1031A0004942FFF7DDFFAC4200D04042002C00D086
:1031B000494270BD00487047348D000838B5044658
:1031C000C0681821401E4843A16840183C2148436C
:1031D000616840183C2148432168451860690C210A
:1031E0004843216940186921C900401A3021FFF77E
:1031F000CDFF114A50434219084600921A2902DBBA
:103200000E49511800910C21FFF7C0FF0C4A5043A2
:10321000009A801800900B4806E0491E425C074B5C
:103220005A43009BD21800920029F6DC21466846DA
:1032300000F0AEF8009838BD801F8607805101006D
:103240008033E101388D000803460B439B0703D010
:1032500009E008C9121F08C0042AFAD203E00B785B
:103260000370401C491C521EF9D27047D2B201E0D3
:103270000270401C491EFBD270470022F6E710B5D1
:1032800013460A4604461946FFF7F0FF204610BDD4
:10329000421E5378521C002BFBD10B781370491C33
:1032A000521C002BF9D1704710B5044605E00B788D
:1032B0000370401C002B00D0491C521EF7D2204640
:1032C00010BDCAB2401E4178401C8A4202D000297B
:1032D000F9D100207047421C0178401C0029FBD125
:1032E000801A704703460A780270401C491C002A65
:1032F000F9D11846704730B505460020034600E076
:103300005B1C934205D2EC5CC85C201A01D1002CF6
:10331000F6D130BD70B5104D002800D128680024CA
:1033200014E00A4602E09E4203D0521C1378002BA0
:10333000F9D1DAB2224307D0002B06D0002C04D0FA
:1033400000210170401C04E00446401C0678002E59
:10335000E7D12860204670BDC801002070B5064640
:1033600001F0E8FE046805460A220021304600F01C
:1033700049F82C6070BD70B5064601F0DBFE0468AC
:1033800005460A220021304600F03CF82C6070BD52
:1033900070B50C4600683C21FFF7E2FE21603C213D
:1033A000FFF7DEFE61601821FFF7DAFE0546A16037
:1033B0000721001DFFF7D4FEA1610F48A9000818DE
:1033C0000E49FFF7CDFE0246443288086261E06193
:1033D0003B2802D3910700D0401C0021084B0A462D
:1033E0002161995C814203D8401A521C2261F8E79E
:1033F000401CE060204670BD6C0B0000B50500006D
:10340000448D0008F7B5009C0F4600262578641C03
:10341000002D05D0FFF7CEFE0068405DC007F5D156
:103420002B2D02D02D2D18D0641E39462046029A2D
:1034300000F032F8002F04D03968A14201D1009980
:1034400039607105022400290BDA4042002803DDAF
:1034500001F070FE0460A007FEBD0120800206435B
:10346000E3E70028F8DA01F065FE04600048FEBDDD
:10347000FFFFFF7F064C0125064E05E0E36807CC01
:103480002B430C3C98471034B442F7D3FFF71CFE93
:10349000C08D0008E08D0008F7B582B0029C0027BF
:1034A0002078641C15460197302802D0002D15D0D5
:1034B00015E020780127641C782804D0582802D011
:1034C000002D09D00BE0002D01D0102D07D10027D1
:1034D00010252078641C02E0082500E00A2500265B
:1034E000009610E00099012769430818020C29464C
:1034F00080B2714300908E183804864201D30120B7
:1035000001902078641C294600F019F80028E9DAB7
:103510000398002805D0002F01D0641E00E0029C13
:1035200004600198002806D001F004FE0221016029
:10353000C81E05B0F0BD009930040843F9E73A28E9
:1035400000D23038202302469A43412A01D3104644
:103550003738884201D30020C043704701B50120AD
:10356000184908701849087003F090FC22E01648CA
:10357000007800281BD10A2214A11748FFF7BBFED0
:10358000002814D115A11748FFF7ACFE04201649F6
:10359000087001200C49087001221449144801F0F8
:1035A00040FC00BF084800780028FBD108BD009807
:1035B000401E009000980028D9D1024908700120CF
:1035C000F4E70000CA000020C90000204454553A26
:1035D000434F4E4649470000D80200204F4B0D0A8A
:1035E00000000000D8010020C400002007010700EF
:1035F00000380140002806D006490968102211430E
:10360000044A116005E00349096810229143014A08
:10361000116070470020024001460020044A1068F3
:103620004008400002460A431046014A10607047B5
:1036300000200240F0B50A4600210023002400BF0C
:103640003DE001258D402B4615681D402C469C42CF
:1036500034D11579012D02D01579022D16D1856846
:103660004F000326BE40B543856055794E00B540F6
:10367000866835438560858801268E40B543858000
:10368000858896798E40B6B23543858005684F00AF
:103690000326BE40B543056015794E00B540066867
:1036A00035430560C5684F000326BE40B543C5607D
:1036B000D5794E00B540C6683543C560491C102910
:1036C000BFD3F0BDF0B5002300244D07EE0E154624
:1036D000B5402B46CD10AE0005462035AD594E07FE
:1036E000F70E0F26BE40B543CE10B6000746203772
:1036F000BD51CD10AE003D46AD591D432C46CD10F9
:10370000AD003E467451F0BD00BFFEE7C161704799
:10371000002904D0026801231A43026003E0026812
:103720005208520002607047002905D04268012308
:103730005B031A43426004E0426801235B039A433F
:103740004260704710B502460023002093691C4672
:103750000C402346002B01D0012000E0002010BDCA
:1037600010B50A46002103685B085B00036001682E
:10377000144B194094682402536823431943016091
:103780000F2424061368A343036103680124234321
:10379000036000218160C160146993692343194665
:1037A000816083680124E40323438360D168036854
:1037B0000B4303604168044B19405369194341604E
:1037C00010BD0000FFE0CF00FF7FFF070146486A01
:1037D000C0B2704781627047F0B50C460021416865
:1037E000074D2940A505AD0D1604FF273F043E40B7
:1037F00035431D43059E354329434160F0BD00001C
:10380000009800FC38B5012100916A4600211D484E
:1038100003F08AFB082100916A461B4801881B4877
:1038200003F082FB1848008808301749088062219D
:1038300000916A4614480188154803F075FB124848
:103840000088623010490880002416E00C210091A5
:103850006846008802F0BEFFA1000E4A5050A10049
:1038600050586A460849098803F05EFB06480088FC
:103870000C3005490880601CC4B2024800788442BC
:10388000E4DB38BDF6000020F4000020F800002042
:10389000D80300203C04002030B50246002300BFBE
:1038A0000846CD176D0E2D18ED11ED014D1BECB234
:1038B000CD176D0E2D18E911002901DD802004437C
:1038C00018465B1C14540029EADC184630BD000081
:1038D000401C802801DA401C0BE00121890388424A
:1038E00001DA801C05E00349884201DAC01C00E0CF
:1038F000001D7047FFFF1F00F0B585B005460E465E
:10390000144604950020039002900027401E019069
:10391000204600F0BFF807460090FFF7D9FFB042FD
:1039200003DD0120C0430190A8E000216846017337
:10393000F02103988843103003906846017B04A867
:1039400004F04AFE39460498FFF7A6FF0499401890
:103950000490207A042808D14AA104A804F028FE83
:10396000042104A804F038FE07E048A104A804F0EC
:103970001FFE032104A804F02FFE002069460872F0
:10398000022102988843A17E490002221140084387
:103990000290042102988843E17E002901D0012190
:1039A00000E000218900042211400843029002989F
:1039B0004007C00F002813D01821029888433D21EA
:1039C000095DC90018221140084302902021029885
:1039D00088433C21095D490120221140084302909F
:1039E000206C002802D1A06C002804D0802102980D
:1039F000884380300290E06C002802D1606D00287E
:103A000004D0402102988843403002906846017AF1
:103A100004A804F0E1FD218B04A804F0E3FD04A850
:103A200063692269E16804F0F6FDE07E00280BD0AE
:103A300004A8E36AA26A616A04F0EDFD04A8A36B1E
:103A4000626B216B04F0E7FD02980006C00F0028AE
:103A500005D004A8A36C626C216C04F0DCFD029814
:103A60004006C00F002805D004A8636D226DE16CEC
:103A700004F0D1FD0498401B019000BF019805B0EF
:103A8000F0BD00004D515454000000004D514973E9
:103A90006470000070B504460025207A032801D127
:103AA0000C2503E0207A042800D10A2562692169E7
:103AB000E06800F0CFF8801C4519E07E00280DD0AA
:103AC000E26AA16A606A00F0C5F8861CA26B616BAD
:103AD000206B00F0BFF83018801C4519206C0028BE
:103AE00002D1A06C002806D0A26C616C206C00F0A2
:103AF000B1F8801C4519E06C002802D1606D0028E7
:103B000006D0626D216DE06C00F0A4F8801C4519B0
:103B1000284670BD70B504460D460E222946204643
:103B200000F071F870BDFFB587B005460F461C4622
:103B3000169E06950020059004900390009620465E
:103B400012A90EC900F04EF804900290FFF7C0FED3
:103B5000B84203DD0120C043039040E0F021059806
:103B60008843303005900821059888430999C90099
:103B700008221140084305900621059888436100FA
:103B8000062211400843059005984008400010990E
:103B9000C907C90F084305906846017D06A804F0CF
:103BA0001BFD04990698FFF777FE069940180690CA
:103BB00006A812A90EC904F02EFD002C03DD06A8EC
:103BC000119904F00FFD324615990698FFF73CFB5A
:103BD0000698801906900698401B039000BF039832
:103BE0000BB0F0BD7FB50546089E002401A807C8AC
:103BF00000F030F8801C80190419002D00DDA41C91
:103C0000204604B070BDFEB504460D4616460020A1
:103C10000190471E0094022D01DA871E18E0002152
:103C200068460171F021019888433101F02211406A
:103C3000084301906846017904F0CEFC0021009809
:103C4000FFF72AFE0099401800900098071B00BF5C
:103C50003846FEBD37B500240098002804D00098EF
:103C6000FFF739FB044600E0019C20463EBD70474B
:103C700000218278002A27D0184A03231B02D21879
:103C800003789B109B00D15802789207D30EFF2235
:103C90009A400B469343194642789207120E0378D6
:103CA0009B07DB0E9A4011430C4A03231B02D218D8
:103CB00003789B109B00D1500278D306DB0E0122C3
:103CC0009A40064B1A6007E00278D306DB0E012209
:103CD0009A40024B80331A607047000000E100E018
:103CE000002807D007490968FF2201321143054A1D
:103CF000116006E003490968FF2201329143014A3D
:103D00001160704700700040002905D0054A5269D3
:103D10000243044B5A6104E0024A52698243014B58
:103D20005A61704700100240002905D0054AD26947
:103D30000243044BDA6104E0024AD2698243014B38
:103D4000DA61704700100240002905D0054A126967
:103D50000243044B1A6104E0024A12698243014B98
:103D60001A61704700100240002905D0054A926987
:103D70000243044B9A6104E0024A92698243014B78
:103D80009A61704700100240002905D0054AD268A8
:103D90000243044BDA6004E0024AD2688243014BDA
:103DA000DA6070470010024019480068012108439A
:103DB0001749086008464068164908401449486099
:103DC0000846006814490840114908600846006820
:103DD0000121890488430E490860084640683F2154
:103DE000090488430A4948600846C06A000900017E
:103DF000C8620846006BFF215431884304490863B8
:103E00000846406B400840004863002088607047C7
:103E1000001002400CB8FFF8FFFFF6FEFEB50446A6
:103E2000002500260020019000900027504840689F
:103E30000C2108400546002D04D0042D05D0082D86
:103E400028D105E04B48206027E04A48206024E064
:103E5000474840680F2189040840064644484068A6
:103E60000121090408400190B00C861C019800282B
:103E700003D14148704320600BE03D48C06A000711
:103E8000000F401C00903B480099FFF769F9704310
:103E9000206002E03748206000BF00BF344840681F
:103EA000F021084005462D093448475D2068F84058
:103EB00060602F48406807210902084005462D0A26
:103EC0002E48475D6068F840A0602948006BFF21DC
:103ED00001310840884202D02948E0600DE02448C2
:103EE0004068012189030840884203D0A068400847
:103EF000E06002E0A0688008E0601D48006B40219F
:103F00000840402802D01F48206102E00120C00381
:103F100020611748006B10210840102802D0154876
:103F2000606101E0206860611148006B8007800FCC
:103F3000002802D1A068A06119E00D48006B80073D
:103F4000800F012802D12068A06110E00848006BB2
:103F50008007800F022802D18003A06107E0044897
:103F6000006B8007800F032801D10248A061FEBDCD
:103F70000010024000127A0000093D0046010020B6
:103F8000809FD5001280000010B50246002100235A
:103F900000205111002902D10C4C23680BE00129AB
:103FA00002D10A4C236A06E0022902D1074C636A57
:103FB00001E0064C636BD106C90E01248C401C4005
:103FC000002C01D0012000E0002010BD00100240B4
:103FD000024840680C210840704700000010024071
:103FE00001460020054A5068F02302469A431046D5
:103FF00002460A431046014A5060704700100240D2
:104000000021024A917011468870704700100240EA
:104010000549096B10229143034A11631146096B4C
:104020000143116370470000001002400849096A0B
:1040300049084900064A11621146096A042291435F
:10404000034A11621146096A014311627047000078
:104050000010024001460020064A506807231B0258
:1040600002469A43104602460A431046014A5060EF
:104070007047000000100240002807D00749096877
:10408000012212061143054A116006E0034909683E
:10409000012212069143014A11607047001002404C
:1040A000074A52683D231B049A43054B5A601A463F
:1040B000526803460B431A43014B5A607047000095
:1040C00000100240002807D00749096A0122D203E4
:1040D0001143054A116206E00349096A0122D2032D
:1040E0009143014A11627047001002400249096A77
:1040F0000143014A1162704700100240014600204E
:10410000044A50688008800002460A431046014A6B
:10411000506070470010024038B500200090002425
:10412000002500BF1120FFF72FFF05460098401C17
:104130000090052109020098884201D0002DF1D09D
:104140001120FFF721FF002801D0012400E0002406
:10415000204638BD014600BFF020084000110A2368
:10416000584302460807000F8018C0B27047014646
:10417000002204E0501CC2B208460A38C1B20A2923
:10418000F8DA1007000E08437047000010B501214F
:104190000807FFF7C9FD0120FFF7A2FD0120FFF787
:1041A00045FF00BF2120FFF7EFFE0028FAD0FF20D7
:1041B0000130FFF79BFFFF20054908607F2005497C
:1041C00008600120FFF77EFF00F0E4F910BD000059
:1041D000EC000020E800002008B50022009200203A
:1041E0000021124AD26840231A40002A1BD1421EE5
:1041F0000E4BDA6000BF0D4AD26840231A401146C8
:10420000009A521C00921B02009A9A4201D0002987
:10421000F1D0064AD26840231A40002A01D001207A
:1042200002E0002000E0012008BD0000002800405E
:104230000348C068802188430149C8607047000076
:104240000028004070B506460C460025134840681B
:10425000134908400546FF2000042840000CE07088
:104260001F2000022840000A6070A806800EA0707F
:10427000072040032840400B2070002E0DD1E0782D
:10428000FFF768FFE0706078FFF764FF6070A07868
:10429000FFF760FFA0702078207070BD00280040FC
:1042A0003FFFFF0070B506460C4600251248006827
:1042B0001249084005463F2000042840000C2070A9
:1042C0007F2000022840000A60706806400EA0703F
:1042D000012080052840000CE070002E0BD12078D2
:1042E000FFF738FF20706078FFF734FF6070A07828
:1042F000FFF730FFA07070BD002800407F7F7F0077
:1043000030B504460025CA2012494862532048624D
:10431000FFF762FF002800D117E00E4880684021B7
:1043200088430C4988600846806821680843094929
:104330008860A068086108460069A18809040843EC
:1043400004490861FFF774FF0125FF200149486215
:10435000284630BD0028004008B5014600200090E6
:10436000044800908800009A801800900098006827
:1043700008BD000050280040F8B505460C46002650
:1043800000200090002D08D16078102108401028EE
:1043900003D1607888430A306070002D00D108E0B6
:1043A0006078FFF7D7FE0646A078FFF7D3FE0646F3
:1043B00000BF002D0BD0E0780004617809020843AB
:1043C000A1780843217849030843064610E0E078C5
:1043D000FFF7CDFE07046078FFF7C9FE0002074330
:1043E000A078FFF7C4FE07432078400307433E460A
:1043F000CA201349486253204862FFF7EDFE0028A7
:1044000001D1009016E00F4830400D494860FFF799
:104410000FFF0B48806820210840002808D100F0D9
:10442000B9F8002801D1009004E00120009001E0DB
:1044300001200090FF20024948620098F8BD00006A
:10444000002800403FFFFF00F8B505460C46002657
:1044500000200090002D0AD12F488068402108409C
:10446000002800D002E00020E07000BF0EE02A48E3
:10447000806840210840002804D02078FFF76AFEB9
:10448000064602E00020E07000BF00BF002D0BD008
:1044900020780004617809020843A1780843E17894
:1044A00009040843064610E02078FFF760FE070481
:1044B0006078FFF75CFE00020743A078FFF757FE25
:1044C0000743E078000407433E46CA201249486289
:1044D00053204862FFF780FE002801D1009016E0CB
:1044E0000E4830400C490860FFF7A2FE0A48806879
:1044F00020210840002808D100F04CF8002801D104
:10450000009004E00120009001E001200090FF20D5
:10451000014948620098F8BD002800407F7F7F0075
:1045200011B585B0FFF732FE1748006801901748B3
:1045300000680290002000906846FFF7E1FE05A8A1
:104540000020C046044600216846C174217A0174E7
:10455000217941742178817404A90020FFF774FF48
:10456000217E68460173217B8173217C4173217D0B
:10457000C17303A90020FFF7FFFE0549002000F0EA
:104580003FF806B010BD0000E8000020EC0000205D
:10459000F032000008B50022009200200021174AE6
:1045A000926820231A40002A01D0012025E0CA2267
:1045B000124B5A6253225A621A46D268A0239A4377
:1045C0000E4BDA6000BF0D4AD26820231A40114614
:1045D000009A521C00929B02009A9A4201D0002934
:1045E000F1D0064AD26820231A40002A01D00120C7
:1045F00000E00020FF22014B5A6208BD0028004065
:1046000008B500220092044A00928200009BD21852
:104610000092009A116008BD50280040F0B5C5B066
:10462000FF21013105A8FEF728FE0120824908700C
:1046300000208249087001208149087001028148E8
:10464000FEF71BFE01228049804800F0EAFB00BF14
:10465000794800780028FBD17A48FEF73CFE861E98
:104660003246784905A8FEF7EFFD79A105A8FEF7C7
:1046700051FE0446207804900498312804D0322852
:1046800045D0332877D177E071A10020FEF742FEB4
:1046900004462046FEF76FFE03900398FFF740FFA5
:1046A0006BA10020FEF736FE04462046FEF756FEBC
:1046B0006849086066A10020FEF72CFE04462046EB
:1046C000FEF74CFE40B26349087161A10020FEF77D
:1046D00021FE04462046FEF741FE40B25D49487186
:1046E0005BA10020FEF716FE04462046FEF736FECC
:1046F00040B258498871082257480188554802F04D
:10470000B7FD554800880830534908808FE050A114
:104710000020FEF7FFFD044621465048FEF7E2FD6B
:104720004BA10020FEF7F6FD04462046FEF716FEDC
:1047300000B24A49088446A10020FEF7EBFD04467A
:10474000214646482230FEF7CDFD41A10020FEF76C
:10475000E1FD0446214641483230FEF7C3FD6222A6
:104760003D4801883D4802F083FD3B4800886230A7
:10477000394908805BE059E035A10020FEF7CAFD09
:1047800004462046FEF7EAFD0546002641E030A13A
:104790000020FEF7BFFD044627463846FEF7DEFD43
:1047A00041B2684601702C213846FEF78AFD471C4D
:1047B0003846FEF7D3FD41B2684641702C21384699
:1047C000FEF77FFD471C3846FEF7C8FD41B268463C
:1047D00081702C213846FEF774FD471C3846FEF7E1
:1047E000BDFD41B26846C1702C213846FEF769FD17
:1047F000471C394601A8FEF775FD0C2216480188B2
:10480000684602F035FD144800880C3012490880D3
:10481000761CAE42BBDB1248007840191049087084
:10482000012200210E4802F023FD00E000BF00BF7E
:1048300002F0E0FC45B0F0BDC9000020CD00002032
:10484000CA000020D8020020050105000038014000
:104850007C000000F8000020F4000020D8030020B5
:10486000F6000020FEB504460E461546A100474A54
:10487000505800F085FAA100454A5158A200454B16
:104880009A58114308460121FFF73EFA002C06D141
:10489000A100414A50580121FFF766FA05E0A10046
:1048A0003D4A50580121FFF73FFA3C4B1A5D3C4B03
:1048B000195DA3003B4FF858FEF704FF3A4B1A5D11
:1048C0003A4B195DA3003A4FF858FEF7FBFE012D55
:1048D00008D1384B1A5D384B195DA300374FF85893
:1048E000FEF7F0FE60003649085A00900221684643
:1048F000017103214171002181710121C171A10068
:10490000284A50586946FEF795FE60002D49085A1E
:104910000090A100264A50586946FEF78BFE012DF3
:104920000CD160002849085A009000206946C871DF
:10493000A100224A50586946FEF77CFEA100134AA6
:104940005058314600F08EFA012D17D1A1000F4AC0
:104950005058012100F0FCF9A1000C4A50581021D8
:1049600000F003FBA100094A5058102100F007FB9A
:10497000A100064A5058002100F0F8F9A100034AAE
:104980005058012100F0D8F9FEBD00001C010020A4
:10499000288A0008308A0008208A00084A8A00080D
:1049A000448A0008240100204C8A0008468A000836
:1049B0002C0100204E8A0008488A0008340100209B
:1049C000388A00083C8A0008408A00081CB5044662
:1049D000A1000F4A50580121FFF796F960000D49D8
:1049E000085A009001216846017100218171C1714E
:1049F00003214171A100084A50586946FEF71AFE8A
:104A000060000449085AA100034A515888611CBD3E
:104A1000048A0008F4890008000100204100034ACC
:104A2000515A8200024B9A5891617047F4890008EC
:104A3000000100204100034A515A8200024B9A585B
:104A400011857047F48900080001002038B504463C
:104A50000D4668460470457001218170FFF708F922
:104A600038BD704701460020044A10688008800065
:104A700002460A431046014A106070470000014098
:104A80000CB500200190009011201D4908601D48C0
:104A900040681C49486008464068486008464068CD
:104AA0003F210904884317494860084640680521AA
:104AB000C9040843134948600846006801210906F3
:104AC00008431049086000BF0E48006801214906EC
:104AD00008400028F8D00B48406880088000094949
:104AE000486008464068022108430649486000BF04
:104AF000044840680C2108400828F9D10CBD00008A
:104B0000002002400010024010B5FEF7F3FA044600
:104B100003F05AFE002803D0012000070249486034
:104B20002046FEF7EBFA10BD00ED00E010B51B4883
:104B3000006801210843194908600846406818497F
:104B4000084016494860084600681649084013495D
:104B50000860084600680121890488430F490860FD
:104B6000084640683F21090488430C4948600846CC
:104B7000C06A00090001C8620846006BFF21543179
:104B80008843064908630846406B40084000486374
:104B900000208860FFF774FF10BD00000010024085
:104BA0000CB8FFF8FFFFF6FE10B50121880700F0F2
:104BB00050F8002815D00121880700F01BF809489B
:104BC0000078401C07490870084600781E2808D164
:104BD000002008700120044908700021800700F0BF
:104BE0000DF810BD990100209801002010B503F0C8
:104BF000DDFA10BDCA43028270470000002904D0CC
:104C0000028801231A43028003E00288014B1A4004
:104C100002807047FEFF00003EB504460D460121AC
:104C20000846FFF781F8019468460580002141801D
:104C3000018169460120800700F028F80122114611
:104C4000900700F019F8002101208007FFF7D6FF38
:104C50003EBD30B50246002000230024158A0D40D9
:104C60002B4695890D402C46002B03D0002C01D0FB
:104C7000012000E0002030BD002A03D083890B43CF
:104C8000838102E083898B438381704700220288FD
:104C9000154B984206D001239B07984202D0134B34
:104CA000984203D1124B1A404B881A43114B984239
:104CB00003D0114B1A400B891A4302804B68C36220
:104CC0000B880385084B984208D00C4B984205D0BE
:104CD0000B4B984202D00B4B984201D18B7A038642
:104CE0000123838270470000002C01400004004033
:104CF0008FFF000000100040FFFC0000004001405A
:104D0000004401400048014010B5054800780028E3
:104D100002D103F089FA02E0024800F03BF910BD2D
:104D2000C20000200038014010B5024800F032F9FE
:104D300010BD000000440040002904D00268012397
:104D40001A43026003E00268520852000260704792
:104D5000002905D0826801239B031A43826004E086
:104D6000826801239B039A43826070478268012313
:104D7000DB039A43826082680A43826070470000C6
:104D800010B504460C48844209D101218803FEF77E
:104D9000FBFF002101208003FEF7F6FF0BE0074830
:104DA000844208D101214804FEF7CEFF00210120F2
:104DB0004004FEF7C9FF10BD003801400044004028
:104DC00002460020D3690B40002B01D0012000E0F7
:104DD0000020704770B502460B46002400210025D4
:104DE00000201E04350ED9B201268E403146012D19
:104DF00002D11668314006E0022D02D156683140DA
:104E000001E0966831401C0C0126A6403446D66964
:104E10003440002903D0002C01D0012000E0002004
:104E200070BDF8B50346002400260096002500203A
:104E300018460E04340ECEB200960127009EB740ED
:104E40003D46022C01D1001D02E0032C00D10830A8
:104E5000002A03D006682E43066002E00668AE43CF
:104E60000660F8BDF0B589B005460E460024002066
:104E7000089000BF00BF28684008400028606C68A8
:104E800003210903204688430446B06804436C604C
:104E90002C682F480440F168706808433169084362
:104EA00004432C60AC680321090220468843044671
:104EB00070690443AC606846FEF7B0FF2548854240
:104EC00002D10698089001E0029808902868012114
:104ED000C9030840002809D0326851001923089AF4
:104EE0005A431046FEF73CF9074608E03268910045
:104EF0001923089A5A431046FEF732F907466421EF
:104F00003846FEF72DF90401200964214843381A78
:104F1000079028680121C903084000280AD0079992
:104F2000C900084632306421FEF71AF94007400FE5
:104F3000044309E007990901084632306421FEF76D
:104F40000FF90007000F0443AC8109B0F0BD000069
:104F5000F3E9FFFF003801400146888CC005C00D11
:104F60007047CA05D20D0285704702681F235B0592
:104F70009A43026002684B051A4302607047026858
:104F80001F231B049A43026002680B041A43026049
:104F90007047000070B5054647492846FFF71AFFDD
:104FA000002868D02846FFF7D7FFC4B243480078EE
:104FB000002806D042490878411C414A11704149F5
:104FC0000C54414800780D2852D10A2C50D13F484A
:104FD0000078002826D13E480078401C3C490870E3
:104FE000084600783B490978884203D101203349BB
:104FF00008703DE03648017836480078401C814210
:1050000036D100222C492846FFF70BFF00202B4900
:105010000870314908702A4908702D4908702F49D5
:10502000087025E02A480078401C29490870084685
:10503000007828490978884203D101201F49087067
:1050400016E02348017821480078401C81420FD1A6
:10505000002219492846FFF7E4FE0020174908708E
:105060001D49087016490870194908701B490870D5
:105070001548047000BF1A492846FFF7ABFE002808
:1050800019D018480478601C164A10701648015D43
:105090002846FFF766FF13480078144909788842CC
:1050A00009D100220E492846FFF7BBFE00200D491A
:1050B00008700A49087070BD05010500CA0000208B
:1050C000C7000020D8020020CB000020CE00002026
:1050D000CC000020CD000020C8000020C900002026
:1050E00007010700C6000020D8010020C4000020EE
:1050F0000FB410B504A9074B02AA039800F02EF8CC
:10510000044602A9002000F0D1F9204610BC08BCDA
:1051100004B01847AD54000830B47446641E2578B6
:10512000641CAB4204D3635D5B00E31830BC1847DA
:105130001D46F8E700487047D401002002E008C887
:10514000121F08C1002AFAD170477047002001E001
:1051500001C1121F002AFBD170470000FFB58FB0BC
:105160000546002606E025280AD0129A1199904794
:105170006D1C761C28780028F5D1304613B0F0BDA0
:10518000002402940121B54A009400E004436D1C00
:105190002B780846203B98401042F7D128782A28DF
:1051A0000ED00222287801463039092916D80299F2
:1051B0000A2359433039401814436D1C0290F1E71B
:1051C000109802C802911090002904DA01204003CF
:1051D000044348420290022004436D1C28782E2884
:1051E00017D10420044368786D1C2A280CD110982C
:1051F0006D1C02C8009110900BE000990A225143E7
:10520000303940186D1C0090287801463039092942
:10521000F3D928786C2810D006DC4C281AD06828DE
:105220000ED06A2817D104E0742813D07A2812D13E
:1052300010E00120400504430CE00121090501E0D4
:10524000032109050C436978814203D1012000053F
:1052500024186D1C6D1C2878692874D006DC002881
:105260008BD0632827D0642806D16CE06E2808D044
:1052700073282CD0752878D0129A11999047761CF3
:105280005FE06002400F022809D003280DD00428F7
:10529000109801680DD00E60001D109051E010981C
:1052A000F21701680E604A60F6E7109801680E80F8
:1052B000F2E70E70F0E710986A4601781173001D4E
:1052C00010900020507303A80190012005E0109871
:1052D00002C8019110900020C04361070CD500273F
:1052E00000E07F1C00998F420FDA8742F9DB0199B9
:1052F000C95D0029F5D108E0002700E07F1C874246
:10530000FCDB0199C95D0029F8D102982146C01B38
:105310000290129B119A00F0B3F88019C61907E0A9
:10532000019801990078491C0191129A11999047AE
:105330007F1EF5D22146129B119A029800F090F838
:1053400086196D1C16E70A200190109901C9109169
:105350006102490F032900D100B2042900D140B2F3
:10536000002803DA40422D2103E00DE0210504D599
:105370002B216A461173012103E0E10711D020219E
:10538000F7E70CAF0C9114E00A200190109901C9C5
:1053900010916102490F032900D180B2042900D184
:1053A000C0B20021EDE70199FDF7DAFE30317F1E32
:1053B00039700028F7D104A8C01B20300190600785
:1053C00004D5012000048443009801E001200090EE
:1053D0000199884201DD401A00E000204118009048
:1053E0000C9809180298401A0290E00306D421464E
:1053F000129B119A029800F043F8861900200D9034
:1054000008E003A9085C129A119990470D98401C76
:10541000761C0D900C998842F3DBE0030CD52146F5
:10542000129B119A029800F02BF8861904E0129A48
:10543000302011999047761C0099481E0090002951
:10544000F5DC05E03878129A7F1C11999047761C9C
:105450000199481E01900029F4DC6BE7092801003E
:10546000F8B5044600251E461746880404D405E016
:1054700039462020B0476D1C641EF9D52846F8BD7A
:10548000FFB50446002581B01E46C80301D530276C
:1054900000E02027880404D505E038460399B0478A
:1054A0006D1C641EF9D5284605B0F0BD0A68531C72
:1054B0000B60107070470000014600290AD0087B7D
:1054C000002807D1087B4001034A8018884201D197
:1054D000012070470020FCE72C170020F8B5054696
:1054E000002000902E4600270127002F0CD002211B
:1054F000706800F045FD040001D101200090002CEF
:1055000000D101E002F0FEFD0098F8BDF8B50646B6
:105510000F46009602F002FE009EB468FF200530A0
:10552000005D002800D101E002F0ECFDFF20023018
:10553000005D002804D0012815D002282BD12BE0D3
:105540000021FF2003300153015B601C4754FF2002
:105550000330005B401C81B2FF2003300153012166
:10556000401E01551DE0FF200330005BFF280DDCCD
:10557000FF200330015B601C4754FF200330005BB9
:10558000401C81B2FF200330015303E00221FF20C1
:105590000230015505E000BF0221FF200230015515
:1055A00000BF00BFFF210D31085900F027FF002880
:1055B0001AD0FF2111310859002100F0D9FD05460C
:1055C000002D00D101E002F09DFD00994868042102
:1055D00000F0D6FC0546002D00D101E002F092FD5E
:1055E0000221FF200230015502F0BAFDF8BDF8B5E6
:1055F000064601200090374602F090FDBD68FF206E
:105600000530405D002800D101E002F07BFDFF2065
:105610000230405D01280AD10321786800F0B0FC17
:105620000446002C00D101E002F06CFD0AE00421E8
:10563000786800F0A5FC0446002C00D101E002F0DF
:1056400061FD00BF00BF0021FF2002304155FF2156
:1056500011314859002100F08BFD0446002C00D187
:1056600001E002F04FFDFF210D31485900F0DEFE50
:105670000446002C00D101E002F044FD02F070FD70
:105680000098F8BDF3B583B0074600200290019062
:105690003E4602F043FDB468FF200230005D002862
:1056A00000D101E002F02EFDFF200530005D012851
:1056B00000D101E002F026FDFF200930005900284A
:1056C00000D001E002F01EFDFF200530005D012842
:1056D0002CD1FF200730005B002816DDFF200930A9
:1056E0000059017804980170FF2009300059401CCE
:1056F000FF2109310851881E005B401E81B2FF2046
:1057000007300153012002900FE0607800280AD191
:105710000521706800F034FC0546002D00D104E03E
:1057200002F0F0FC01E0012001900AE0062170681F
:1057300000F026FC0546002D00D101E002F0E2FC5D
:1057400000BF00BF0298002809D100BF0021FF2040
:1057500005300155801C0153801C015100BF019888
:10576000002811D0FF21113108590A4900F000FD2D
:10577000002809D00621706800F002FC0546002DC3
:1057800000D101E002F0BEFC02F0EAFC029805B094
:10579000F0BD00000D550008F8B505460E4600277F
:1057A0002C4602F0BBFC002C0DD0207840000849AC
:1057B0004018A04207D16078002804D00127607803
:1057C00030700020607002F0CBFC3846F8BD00005D
:1057D000B901002000B5014605200B00FFF79CFC35
:1057E0000C1907090B0D0F111913191517190A2098
:1057F00010E00B200EE00C200CE00D200AE00E2043
:1058000008E00F2006E0102004E0112002E0122042
:1058100000E000BF00BF00BD70B5054602262C4663
:10582000002C10D0207B00280DD1207B400107499F
:105830004018A04207D102F071FC204600F078F831
:10584000064602F08DFC304670BD00002C1700208B
:10585000FFB585B004460D4616460E9F0020039006
:1058600000BF04A803A9009701910290324629467F
:105870002046089B02F08FF96846007B0528F0D18E
:105880006846007C09B0F0BDFFB585B004460D4602
:1058900016460E9F0020039000BF04A803A900979E
:1058A00001910290324629462046089B02F01BFADD
:1058B0006846007B0528F0D16846007C09B0F0BD41
:1058C000FFB585B004460D4616460E9F0020039096
:1058D00000BF04A803A9009701910290324629460F
:1058E0002046089B02F0A7FA6846007B0528F0D105
:1058F0006846007C09B0F0BDFFB585B004460D4692
:1059000016460E9F0020039000BF04A803A900972D
:1059100001910290324629462046089B02F041FB45
:105920006846007B0528F0D16846007C09B0F0BDD0
:1059300070B50446022502F0F1FB002C47D0207B15
:10594000002844D1207B400123494018A0423ED189
:10595000E069002820D02046E1698847050036D15B
:105960006068002802D0606802F0E2FB206800282E
:1059700002D0206802F002FC00BF002020606060BE
:10598000A060FF20207300202061E0816061A061A1
:10599000E06100BF00251AE06068002802D060685E
:1059A00002F0C6FB2068002802D0206802F0E6FB67
:1059B00000BF002020606060A060FF2020730020F6
:1059C0002061E0816061A061E06100BF002502F01C
:1059D000C7FB284670BD00002C170020FFB583B020
:1059E00006460F460C9C022C01D1022000E001204B
:1059F000029002980094019039463046069B059A21
:105A000000F004F80546284607B0F0BDFFB583B0A6
:105A100004460F4602200290002C25D001F0BCF96C
:105A2000050002D1042002900FE0002F09D10D984B
:105A3000009028460C9B069A059900F08FF9029079
:105A400002E00220029000BF00BF029800280AD0A6
:105A5000002D05D02846FFF76BFF060000D0029608
:105A60000020206000E02560029807B0F0BD70B50E
:105A70000446022625462846FFF71EFD002803D0CF
:105A8000A86800F003F80646304670BD70B50446BD
:105A9000022502F043FB002C6AD02078002867D151
:105AA0002078FF211531484333494018A0425FD187
:105AB0000025FF2011300059002832D0FF2111317C
:105AC000085900F075FA002801D0032550E0FF20A6
:105AD0000D300059002804D0FF210D31085902F083
:105AE0004DFB00BFFF20207000BF0021801C01552E
:105AF000401C015300BF00BF801C0155801C015396
:105B0000801C015100BF00BF001D015100BF001DDE
:105B10000151FF210131601CFDF7AFFB00BF0025E3
:105B200026E0FF200D300059002800D101E002F0EE
:105B3000E9FA00BFFF20207000BF0021801C015542
:105B4000401C015300BF00BF801C0155801C015345
:105B5000801C015100BF00BF001D015100BF001D8E
:105B60000151FF210131601CFDF787FB00BF0025BB
:105B700002F0F6FA284670BD18160020F7B582B07C
:105B80000E46174602200190029800900098FFF7F9
:105B900093FC00285CD000988468002C58D02078B2
:105BA000002855D12078FF21153148432A49401853
:105BB000A0424DD1012E4BDBF72E49DC002F19D02E
:105BC000FF200330005B042812DB6078B0420FD165
:105BD000FF200330015B601C01F08EFD002807D11F
:105BE000FF200330005BC01E38800020019001E0E0
:105BF0000520019002F092FAFF211131085900218D
:105C000000F00AFB050000D00195FF211131085971
:105C1000002100F0ADFA050000D00195FF210D3103
:105C2000085900F003FC050000D0019500BF0021D9
:105C3000FF2005300155801C0153801C015100BF1D
:105C400000BFC01F0155401C015300BF02F088FA7D
:105C5000019805B0F0BD000018160020F7B582B01D
:105C60000D46164602200190029800900098FFF71A
:105C700023FC00286AD000988468002C66D0207825
:105C8000002863D12078FF2115314843314940185D
:105C9000A0425BD1002D03D0012D57DBF72D55DC41
:105CA000FD2E53DC02F03AFAFF200530005D00289B
:105CB00000D101E002F026FA02F052FA65700121EB
:105CC000FF2007300153005B801981B2FF200730AD
:105CD0000153015B601C01F00FFD0746FF200730F8
:105CE000025B601C8754FF200730005B401C81B2C0
:105CF000FF20073001533912025B601C8154FF20E2
:105D00000730005B401C81B2FF200730015302F0D6
:105D100005FA0121FF2005300155601CFF210931E2
:105D20000851FF21113108590B4900F075FA019013
:105D3000002809D000BF0021FF2005300155801C3C
:105D40000153801C015100BF02F00AFA019805B00E
:105D5000F0BD00001816002085560008FFB587B07A
:105D600005461746002006900026002D76D0002F0D
:105D7000FCD002F0D3F95B480078002851D1002410
:105D80004AE000BFFF21FF2015306043564A1154FE
:105D900000BF0021FF20153060438018FF30013024
:105DA0004170FF20153060438018FF300130418082
:105DB00000BF00BFFF20153060438018FF30013066
:105DC0000171FF20153060438018FF300130C18021
:105DD000FF20153060438018FF300130816000BF24
:105DE00000BFFF20153060438018FF300130C160D4
:105DF00000BFFF20153060438018FF300130016183
:105E0000FF21153161438918481CFF210131FDF73D
:105E100034FA00BF601CC4B2012CB2DB012031494E
:105E2000087000240EE0FF20153060432E49085C06
:105E3000FF2805D1FF20153060434618347003E079
:105E4000601CC4B2012CEEDB00BF002E40D04B2002
:105E50000002874203D90220049006E03DE0790069
:105E60002248FDF77DF980B2049010990A98082322
:105E70003A460295019100903046FF301130089962
:105E800000F0EEF80590002802D00598069018E082
:105E90002B46174A3046FF300D30049900F020FAA7
:105EA0000590002802D0059806900AE0B01C2861F1
:105EB000AE60104868611048A8611048E861002091
:105EC00006900698002805D03046FFF7DFFD01E078
:105ED0000420069002F044F901E0022006900698A2
:105EE0000BB0F0BDC101002018160020C82C010025
:105EF000EF5500085D5C00087D5B00086F5A0008E4
:105F000070B505460226002D33D002F007F91A4875
:105F10000078002812D100240BE000BFFF206100B0
:105F2000164A5054002061008918487000BF601C58
:105F3000C4B2022CF1DB01200F490870002413E0E9
:105F400060000E49085CFF280CD160000C54002052
:105F500061000A4A8918487060001146401828609C
:105F6000002603E0601CC4B2022CE9DB00BF02F093
:105F7000F7F8304670BD0000B8010020B9010020DC
:105F8000F8B505460E4602272C4602F0C7F8002C4D
:105F900007D02078400005494018A04201D1667022
:105FA000002702F0DDF83846F8BD0000B9010020F6
:105FB00070B5054602262C4602F0B0F8002C45D0FC
:105FC0002078000123494018A0423FD120780028C2
:105FD00002D0012836D11AE06068002815D1A068E7
:105FE000002812D100211C48FEF7A6FE1A48FEF731
:105FF000C7FE00BF00BF00BFFF2020700020606010
:10600000A060E06000BF002600E005261DE060689B
:10601000002815D1A068002812D100210F48FEF7F2
:106020008BFE0E48FEF7ACFE00BF00BF00BFFF2096
:10603000207000206060A060E06000BF002600E0EB
:10604000052602E002F05EF800BF00BF02F088F80B
:10605000304670BDA81500200038014000440040C3
:10606000F8B505460F46089E0020009002F056F84D
:1060700039480078002820D1002411E000BFFF201B
:106080002101364A5054002021018918486021011D
:106090008918886021018918C86000BF601CC4B2DB
:1060A000022CEBD300BF00BF00BF00BF00BF00BF8A
:1060B00000BF00BF012028490870002E01D0002D2C
:1060C00002D10220009042E00420009000980228B3
:1060D0003DD0012F02D0022F37D11AE01F4800789F
:1060E000FF2813D100221E491E48FEF79AFE002207
:1060F0001D491C48FEF795FE1848286000201749E6
:1061000008700846C6600020009001E0042000905E
:106110001CE01248007CFF2814D1002210491348CB
:10612000FEF77FFE002210491048FEF77AFE0B486A
:10613000103028600120094908740846C661002013
:10614000009001E00420009000E000BF00BF02F0DA
:1061500007F80098F8BD0000BF010020A815002036
:106160000501050000380140070107000044004018
:10617000F8B505460E4602272C4601F0CFFF002C4D
:106180003DD02078000120494018A04237D1002797
:10619000002E1CD0A068002800D101E001F0B2FF61
:1061A000A6602078002802D001280CD105E0012249
:1061B00016491748FEF735FE08E001221349154835
:1061C000FEF72FFE02E001F09DFF00BF17E0002068
:1061D000A0602078002802D001280CD105E0002220
:1061E0000A490B48FEF71DFE08E00022074909484E
:1061F000FEF717FE02E001F085FF00BF00BF01F0CF
:10620000AFFF3846F8BD0000A815002005010500C5
:106210000038014000440040F8B505460E4602270C
:106220002C4601F07BFF002C4BD020780001274941
:106230004018A04245D10027002E20D060680028D9
:1062400000D101E001F05EFF66602078002802D0F6
:10625000012810D107E000BF00BF01221C491D48E2
:10626000FEF7DFFD0AE000BF00BF012218491A480F
:10627000FEF7D7FD02E001F045FF00BF21E000205E
:1062800060602078002802D0012816D10AE00022A0
:106290000F491048FEF7C5FD012210490D48FEF7D1
:1062A000C0FD0DE000220A490B48FEF7BAFD0122AD
:1062B0000A490948FEF7B5FD02E001F023FF00BFDF
:1062C00000BF01F04DFF3846F8BD0000A8150020C2
:1062D00007010700003801400044004006010600A5
:1062E000FFB585B0054616461F460320009001F015
:1062F00015FF002D72D0002E70D0002F6ED03B48BD
:10630000007800283DD110216846017100214171BB
:106310000121817101A8FDF7ABFC80216846018154
:1063200033480390002168460182418102A9314827
:10633000FEF7ACFC01212F48FEF760FC012211465C
:106340002C48FEF799FC002416E000BFFF20210135
:10635000294A50540020210189184880401E2101FB
:1063600089188880002021018918886021018918F6
:10637000C86000BF601CC4B2052CE6D301201B49D5
:106380000870002407E020011B49085CFF2800D1A9
:1063900003E0601CC4B2052CF5D300BF052C19D056
:1063A000200115490C542101134A89180698488088
:1063B0000020C0432101891888802001114640181F
:1063C000876020014018C660200140182860002026
:1063D000009005E00420009002E0FFE7022000901A
:1063E00001F0BEFE009809B0F0BD0000C001002021
:1063F0003202000000040040C815002070B50546B8
:1064000002262C4601F08AFE002C08D020780001DC
:1064100005494018A04202D16088A080002601F002
:106420009FFE304670BD0000C815002070B50546BF
:1064300002262C4601F072FE002C08D020780001C4
:1064400005494018A04202D1F01EA080002601F0AC
:1064500087FE304670BD0000C815002010B500282A
:1064600023D0124B0022001F196803E0814203D899
:106470000A4649680029F9D1002A0AD01368841A0B
:106480009C4204D1006818181060104602E0506069
:1064900000E01860002907D002680B1A934203D16C
:1064A0000B68D21802604968416010BDCC01002021
:1064B00070B51F490323012208681EA101F026F8C8
:1064C0000446012C31D120211C48FCF7FAFE461C61
:1064D0003046FCF743FFC5B2002D04D0012D0CD08F
:1064E000632D16D113E00520FEF798FA0620FEF77B
:1064F00095FA0420FEF79EFA15E00420FEF78EFAC6
:106500000620FEF78BFA0520FEF794FA0BE0002434
:1065100009E00420FEF782FA0520FEF77FFA062044
:10652000FEF788FA00BF00BF00BF204670BD000024
:10653000D00000202B4353513A200000D802002005
:1065400010B58EB00DA90020FDF7ACFE0CA90020FF
:10655000FDF778FE08A8007D039008A8407D029012
:1065600008A8807D019008A8807C049008A8407C41
:10657000059008A8C07C069001A8FCF71FFE044601
:1065800020460EB010BD000010B5FFF791FF0028A7
:1065900000D110BD0620FEF74DFA01240BE000BF2C
:1065A000A100084A50580023012207A100F0AEFFC5
:1065B0000028F5D0641C042CF1DB00F007F8012062
:1065C000E7E70000D00000204F4B000010B500208E
:1065D000FDF7C2FE0649884208D101210807FDF7F0
:1065E000A3FB0120FDF77CFBFDF7D4FF10BD0000ED
:1065F000F03200001FB5002400BF08E0A0003949B8
:1066000040180068A100384A5050601CC4B2302CB9
:10661000F4DB01210846FDF7A7FB0320FEF722FA71
:1066200001F088FE01F07EF901F026FE01F0E0F9AC
:106630002E492F48FEF7F0FA012000210B460A46AA
:10664000009101904B21C901002001F09BFF012224
:1066500028492948FEF7E5FB2848FCF77FFF00287A
:1066600003D101E0FDF7DAFFFCE7002024490870C0
:10667000FDF7C8F80020009003460246E1214902D8
:106680000190012001F07EFF01F08CFE01221949EA
:106690001C48FEF7C6FBFFF777FF1B490870002078
:1066A000022301900290009303900346802217A1D9
:1066B000184801F0EDFF012810D1002003230190BC
:1066C0000290009303900346FF22013212A1144866
:1066D00001F0DEFF012801D101F0D6FE002004B058
:1066E00010BD00000030000800000020BF120000B4
:1066F0004FC300000501050000380140FFFFFF0403
:10670000C200002000440040C1000020415050322F
:1067100000000000597700084D4F444255530000D7
:1067200085770008F7B584B00F461546502000F075
:1067300051F80646FFF704FF03901D480078401CFF
:10674000C0B21B49087002461AA1039B0498FEF7C9
:10675000CFFC002E2AD0002423E0002001900290DC
:106760000390A000164A1058011D082201A8FCF74A
:106770009BFD60003B5A01AA12A13046FEF7B8FC0F
:1067800031460498FCF784FD681EA04204D10FA195
:106790000498FCF77DFD03E00DA10498FCF778FD5B
:1067A000641CAC42D9DB3046FFF758FE07B0F0BDA1
:1067B000F0000020322C25642C256C642C00000095
:1067C0003C04002025733B256400000024000000E9
:1067D0003B000000F0B50B30C108C900144F002683
:1067E000144A0FE003688B420BD38B4205D95C1A25
:1067F0004318456830C3083B00E04368136002C09B
:1068000004E0021D10680028ECD13046002803D1B6
:106810003868002801D00020F0BD064A0648106004
:10682000064A121AD208D20044C001203860D7E7C5
:10683000D0010020CC010020541700205019002066
:10684000F0B5A9B0074658223F4913A8FCF7FCFC55
:1068500000201090119012903B4A583207CA0DAB9D
:1068600007C300200A900990FF2501353846FCF740
:1068700032FD089000242846FFF7ACFF0646002EA4
:1068800001D129B0F0BDFF2229463046FCF7EEFCCD
:106890002E480C9001462020085E0B900B990C9816
:1068A00000F0D6FE09900998002801DC0020E8E7F6
:1068B000FFF746FE26490690FCF752FC0A46079170
:1068C00024A10DA80330FEF713FC0DA81690142187
:1068D00010A88184012118A881711C4822302390BE
:1068E00010302690042110A8017513AA29463046BD
:1068F000FDF702F8044615482230109008980597D5
:10690000069010A807C802AB07C300200090291BFF
:106910000190301900231A460790FDF704F9041975
:10692000291B3019FDF7F6F804192146304600F00E
:10693000C9FE0A903046FFF791FD0A98002801D160
:1069400001209EE700209CE7508C0008D80300201F
:10695000A08601002564000010B504460E480068BA
:1069600044600E480068844207D20B480168091D44
:106970000B48006801F078F80CE007480168091D31
:106980000848006801F070F807480068844201D2A6
:106990000548046010BD0000580100206C01002073
:1069A000600100205C01002088010020F8B5054648
:1069B0000F46002F03D1A80000F092F900E03846FE
:1069C0000646002E0BD0582000F08AF90446002C11
:1069D00001D0266304E0304601F07EFC00E0002494
:1069E000002C04D0A900A522206BFCF73FFC204618
:1069F000F8BD000070B525E001F076FD1448006890
:106A0000002801D1012000E00020054601F07CFFB4
:106A1000002D17D101F03EFC0D48C068C468201D50
:106A200000F086FE0B480068401E0A4908600A48CC
:106A30000068401E0849086001F03AFC204600F05A
:106A40000DF800BF044800680028D5D170BD0000D3
:106A500018050020680100206401002010B50446DC
:106A6000206B01F039FC204601F036FC10BD00001F
:106A70000A4AD008C0000A4A10600022084B5A6037
:106A800083225201074B5A6000221A60014683227A
:106A900052014A601A460A6070470000480500200B
:106AA0009C010020A401002000BFFFF7A3FFFCE72A
:106AB000F8B504460F461546002608E0B95D2046A5
:106AC00034308155B85D002800D102E0761C082ED4
:106AD000F4D300BF00213B200155052D00D3042530
:106AE000E56265640020A064201D00F0BAFF204626
:106AF000183000F0B6FF24610520401BA0616462DD
:106B00000020E0642065002154200155F8BD0000FC
:106B100010B5002406E0142161430E4A881800F0E5
:106B200093FF641C052CF6D30B4800F08DFF0B4837
:106B300000F08AFF0A4800F087FF0A4800F084FF4F
:106B4000094800F081FF04480849086003480849E3
:106B5000086010BD78040020DC040020F004002050
:106B600004050020180500202C0500205C010020F1
:106B7000600100200B4909680968002901D1012141
:106B800000E00021002904D00021C943064A116019
:106B900006E004490968C968C868034A4168116089
:106BA000704700005C010020880100200248034972
:106BB00048610720086170477FBB000000E000E0EB
:106BC00007480068401C002801D1012000E0002097
:106BD000002802D172B600BFFEE772B600BFFEE722
:106BE000B401002070B5002408211B48FEF7E8F826
:106BF000002801D00120044304211748FEF7E0F8E3
:106C0000002801D00220044302211348FEF7D8F8DF
:106C1000002801D00420044301210F48FEF7D0F8DA
:106C2000002801D0082004430B48FEF795F9C5B2AF
:106C3000002C0FD109480078FF2800D001E001F0B6
:106C400061FA06488068002804D00449C8688A6848
:106C50002946904770BD000000380140A81500206B
:106C600010B500BF00BF002202490348FEF7D9F863
:106C700010BD0000060106000038014038B50124AF
:106C800013480078FF2800D001E001F03BFA1048DB
:106C90004068002805D00E49C8684A686946904790
:106CA0000446002C0DD10020094948600022094902
:106CB0000948FEF7B6F8012208490748FEF7B1F87F
:106CC00004E0684601780448FEF74BF938BD00003F
:106CD000A815002007010700003801400601060042
:106CE000F8B504460020009001F0FEFB264800683D
:106CF000002804D1FFF7BCFE012023490860002CC6
:106D000009D008346007400F002804D06007400F06
:106D10000821081A0419002C32D083204001844233
:106D20002ED21A4F3846056801E02F462D68686854
:106D3000A04202D228680028F7D1154885421FD00A
:106D4000386808300090286838606868001B102890
:106D500010D92E196868001B70606C6071680B4850
:106D600000E00068026852688A42FAD30268326022
:106D7000066000BF074968680968081A0549086085
:106D800001F0C2FD0098F8BDB00100209C01002078
:106D9000A4010020AC010020F8B50427002601F072
:106DA000BDF92F480078002828D1002421E000BF39
:106DB000002061012B4A505061018918486061012F
:106DC00089188860FF20610189180873002061011B
:106DD0008918086161018918C881610189184861B1
:106DE00061018918886161018918C86100BF601C50
:106DF000C4B2002CDBD001201949087000241EE029
:106E0000600118494018007BFF2816D16001461820
:106E100034733346144AFF21F5313046FFF760FAE8
:106E2000050001D02F4607E0301DFFF769F8050087
:106E300001D02F4600E0002703E0601CC4B2002C04
:106E4000DED000BF002F02D03046FEF771FD01F00A
:106E500087F9002F01D13046F8BD0020FCE7000083
:106E6000C20100202C170020DD540008001F012360
:106E70001B060360001F0160001F034B03601438F2
:106E80000260203870470000C16B000800B587B071
:106E900000F01CF8002003900190029004900590EF
:106EA00006900748009069460648FCF759FC012106
:106EB0000448FCF72DFCA0200349088007B000BD62
:106EC00007052100005400403C0100201CB50020B3
:106ED000FDF79EF801218804FCF716FF0121480503
:106EE000FCF722FF012206210E48FCF7EBFB0122F2
:106EF00007210C48FCF7E6FB402000900221684681
:106F000001714171012181710021C17169460548FA
:106F1000FCF790FB8020009069460248FCF78AFB52
:106F20001CBD000000040048F7B584B007461546B4
:106F3000002600200390002402902888FF21FCF7FF
:106F400025F903902888FF21FCF720F90E4601203F
:106F50004003002301220090A0480188A048FCF7CC
:106F60003BFC052040039F4908600AE09D490868F2
:106F7000411E9C4A1160002803D100F035F907B08A
:106F8000F0BD02219648FCF7DDFB0028EED0059805
:106F9000C1B29348FCF71EFC0520400391490860EC
:106FA00009E090490868411E8E4A1160002802D10C
:106FB00000F01AF9E3E740218948FCF7C3FB0028F9
:106FC000EFD0039800287DD00120029076E002984F
:106FD000002814D1052040038249086009E0814956
:106FE0000868411E7F4A1160002802D100F0FCF8B9
:106FF000C5E780217A48FCF7A5FB0028EFD003986D
:1070000001281BD1002E19D1029800280BD009208D
:10701000800201235B06FF220090704801887048BF
:10702000FCF7DAFB23E0002001235B06FF2200903F
:107030006A4801886A48FCF7CFFB18E002980028EC
:107040000BD00920800201231B06FF220090634819
:1070500001886348FCF7C0FB09E0002001231B0600
:10706000FF2200905D4801885D48FCF7B5FB0020D9
:10707000029000241CE0052040035A49086009E002
:1070800058490868411E574A1160002802D100F093
:10709000ABF874E704215248FCF754FB0028EFD00A
:1070A0004F48FCF793FB3855641C2888401E288005
:1070B000FF2CE0D13F190398401E0390039800284D
:1070C00085D100E042E0002E6CD005204003454908
:1070D000086009E043490868411E424A11600028DF
:1070E00002D100F081F84AE780213D48FCF72AFBF5
:1070F0000028EFD00020F2B201235B060090374851
:1071000001883748FCF768FB00241CE00520400399
:107110003449086009E033490868411E314A11606A
:10712000002802D100F060F829E704212C48FCF780
:1071300009FB0028EFD02A48FCF748FB3855641CAF
:107140002888401E2880B442E0D12BE0092080022C
:10715000F2B201235B060090204801882048FCF72A
:107160003BFB00241CE0052040031E49086009E0A9
:107170001C490868411E1B4A1160002802D100F01A
:1071800033F8FCE604211648FCF7DCFA0028EFD0BF
:107190001348FCF71BFB3855641C2888401E2880C8
:1071A000B442E0D1052040030E49086009E00D49D2
:1071B0000868411E0B4A1160002802D100F014F843
:1071C000DDE620210648FCF7BDFA0028EFD020219B
:1071D0000348FCF79BFA0020D1E600003C010020A8
:1071E00000540040400100200320FDF723FC00BFB5
:1071F000FEE700001CB50020019001235B0602465B
:107200000090184801881848FCF7E6FA00BF0120F2
:1072100000031649086030211348FCF777FA012172
:107220001148FCF781FA00BF10490868411E0F4A57
:1072300011600028F8D10198411C0191FF212D31E6
:10724000884202D1FFF7D0FF1CBD10210648FCF791
:1072500079FA0028DBD120210348FCF757FA0020F7
:10726000F2E700003C0100200054004040010020F3
:10727000F7B582B00E461446002001900027002585
:1072800000903046F117090F091809110901711A08
:1072900089B2009110210098081A85B22046E117A2
:1072A000090F09180903090C0191E117090F0918C1
:1072B00009110901611A8FB2009800282FD1019895
:1072C000002809D14C48078002463146029800F058
:1072D00097F8FFF78FFF8CE00FE0102046490880F9
:1072E0000A463146029800F08BF8FFF783FF3046DC
:1072F000103086B20298103002900198411E89B277
:1073000001910028E9D1002F73D03B480780024645
:107310003146029800F074F8FFF76CFF69E00198BD
:10732000002821D1AC4215DD3348058002463146A4
:10733000029800F065F8FFF75DFF601B2E4908809A
:10734000721991B2029A50192B4A00F059F8FFF7BE
:1073500051FF4EE02848078002463146029800F06F
:107360004FF8FFF747FF44E0601B84B22046E11767
:10737000090F091809110191E117090F09180911DD
:107380000901611A8FB2002D0DD01B4805800246FD
:107390003146029800F034F8FFF72CFF701986B2DE
:1073A00002984019029013E01020134908800A4601
:1073B0003146029800F024F8052040030F49086088
:1073C000FFF718FF3046103086B202981030029056
:1073D0000198411E89B201910028E5D1002F08D003
:1073E0000548078002463146029800F009F8FFF789
:1073F00001FF05B0F0BD0000440100204001002065
:10740000F8B506460F461446002501204003C30286
:10741000012200903A4801883A48FCF7DDF905203E
:1074200040033949086009E037490868411E364A77
:107430001160002802D1FFF7D7FEF8BD02213148C4
:10744000FCF780F90028EFD0F9B22E48FCF7C2F91A
:10745000052040032C49086009E02B490868411EBB
:10746000294A1160002802D1FFF7BEFEE5E780211E
:107470002448FCF767F90028EFD00020009022781C
:1074800001235B061E4801881E48FCF7A5F919E098
:10749000052040031C49086009E01B490868411E9B
:1074A000194A1160002802D1FFF79EFEC5E70221AC
:1074B0001448FCF747F90028EFD0715D1148FCF73C
:1074C00089F96D1C2078A842E2D1052040030E49BD
:1074D000086009E00C490868411E0B4A1160002849
:1074E00002D1FFF781FEA8E720210648FCF72AF920
:1074F0000028EFD020210348FCF708F900209CE782
:107500003C0100200054004040010020F8B5044632
:107510000D4616461F4621461048FBF7E3FE10A114
:107520000E48FBF7B5FE0D48FBF7D5FE0D49087078
:107530000D4806700D48077000F01CF82846FBF750
:10754000CAFE0246294600900948FBF7D4FE0028EF
:1075500001D10120F8BD0020FCE70000D801002087
:107560000D0A0000C4000020CD000020CE00002045
:10757000D802002010B5032424060120FDF75AFA92
:10758000012012490870012211491248FDF749FCF7
:1075900000BF0E4800780028FBD100BF40210D48F5
:1075A000FDF70EFC0028F9D00120084908700122DF
:1075B00009490848FDF735FC00BF04480078002859
:1075C000FBD10120FDF72AFA10BD0000C900002000
:1075D000070107000044004005010500F8B5044616
:1075E0000D461646324621460C48FBF72DFE0C4848
:1075F000067001200B490870FFF7BCFF2846FBF717
:107600006AFE07463A4629460748FBF774FE0028FB
:1076100001D10120F8BD0020FCE70000D8010020C6
:10762000C4000020CD000020D802002010B50023A7
:10763000012202A102A0FFF769FF10BD4F4B00001D
:1076400041542B5149434C4F53453D3000000000FD
:1076500070B504460D465020FFF7BCF80646002ED4
:1076600016D02B4622460CA13046FDF741FD0023E3
:10767000012211A13046FFF749FF002802D1FFF790
:10768000D5FF02E001200E4908603046FEF7E6FE15
:107690000B48006870BD000041542B51494F5045C4
:1076A0004E3D312C302C22544350222C2225732263
:1076B0002C25642C302C3200434F4E4E4543540051
:1076C000C401002070B505460C460026E2B207A1B1
:1076D0002846FFF783FF002800D10226FFF7A6FF08
:1076E000002800D10326304670BD00004E4F2043D5
:1076F000415252494552000070B502460B46FF25E3
:10770000FF2408E01178521C61400748405C684043
:1077100004460648455C18465E1EB3B20028F1D107
:107720002802204370BD0000508A0008508B0008DA
:1077300001460A694B68886898608B684868586099
:107740005068884201D18868506000200861106844
:10775000401E10601068704700BF084800F068FEC7
:10776000074800780128F8D1FEF7A2FE012188071A
:10777000FDF744FA002002490870EEE78813000084
:107780009801002070B5D4B0064662480078012800
:1077900070D00220E1235B0201220021009053A857
:1077A000FEF71CF905007CD100BF0025002466E02F
:1077B000A0005949085800214156012906D0022944
:1077C0001BD0032930D0042955D140E01AA8001954
:1077D0000090A000504B18580223C3569AB2A00044
:1077E0004D4B1858417801235398FEF731F81AA8E9
:1077F000005D61002DAA50523EE01AA800190090C9
:10780000A000454B18580223C3569AB2A000424B21
:107810001858417801235398FEF736F81AA8005DEE
:1078200061002DAA505227E060002DA94018009059
:10783000A000394B18580223C3569AB2A000364B09
:107840001858417801235398FEF73AF814E0600085
:107850002DA940180090A0002F4B18580223C356A2
:107860009AB2A0002C4B1858417801235398FEF788
:1078700043F801E04BE000BF00BF601CC4B22748E2
:107880000078844294DB002D17D1244802782DA97A
:1078900001A8FEF747FF22480078002804D001A87D
:1078A00000E02BE0FEF7CCFF0021084600F078F85E
:1078B0000121084600F074F808E00021012000F0E2
:1078C0006FF80121002000F06BF800BF00BF1148E5
:1078D0000078022804D101214007FDF78FF90CE060
:1078E0000C480078012808D1FEF7E2FD0121880745
:1078F000FDF784F900200749087056E700F002FC04
:107900005398FDF789FF050001D000F0FBFB54B050
:1079100070BD0000980100203C040020F60000200B
:10792000C10000201CB501212F204004FCF7ECF918
:107930001548009003216846017169460920C00678
:10794000FBF778FE114800900321684601716946F3
:107950000F48FBF76FFE0F48009003216846017146
:1079600069460D48FBF766FEF0200090032168464B
:10797000017169460948FBF75DFE00212F20400494
:10798000FCF7C2F91CBD000012880000381300008B
:1079900000040048FB0300000008004800140048F1
:1079A00070B505460C4611480078002802D1012028
:1079B0000E490870002D02D0012D14D109E0002CD1
:1079C00003D00320FDF736F802E00320FDF726F888
:1079D0000AE0002C03D00220FDF72CF802E0022080
:1079E000FDF71CF800E000BF00BF70BDC300002021
:1079F00010B50020FCF7EAFF0120FCF7E7FF0220AA
:107A0000FCF7E4FF0320FCF7E1FF0420FCF7DEFFB6
:107A10000520FCF7DBFF0620FCF7D8FF0020FCF771
:107A2000FDFF0120FCF7FAFF0220FCF7F7FF03201F
:107A3000FCF7F4FF0420FCF7F1FF0520FCF7EEFF54
:107A40000620FCF7EBFF10BD014608314160002124
:107A5000C943816001460831C160016100210160B4
:107A6000704700210161704710B502460B685C1C2D
:107A7000002C01D1106907E01046083000E0406892
:107A8000446824689C42FAD944684C604C68A16000
:107A9000886041600A611468641C146010BD42680B
:107AA0004A6093688B6093685960916008610368CD
:107AB0005B1C03607047F8B505460F4614461E462A
:107AC0002078012802D002285ED116E02868FEF74F
:107AD00095FC3070002802D0042020700CE0EA8968
:107AE000394628466B6998473070002802D0042038
:107AF000207001E0022020704BE069466868FDF7C5
:107B00004BFE00283FD02868FEF790FC68460078BE
:107B1000801E0300FDF700FB05040E1D272C31001D
:107B2000002239462846AB69984705202070082076
:107B3000307027E02A460E3239462846AB6998470E
:107B40003070002802D00420207001E00320207053
:107B500018E0002239462846AB6998470420207077
:107B6000052030700EE0052020700020307009E004
:107B7000042020700520307004E0042020700620CE
:107B8000307000BF00BF04E0042020700620307079
:107B900000BF00BFF8BDFFB583B01F460E9E0D9D10
:107BA000039C2046FDF788FC002878D0002DFCD0EF
:107BB000002EFAD028780300FDF7AEFA05043A3B10
:107BC000428285000C9800282DD0002F2BDD7D20CF
:107BD0000001874227DC0020E0810120E289216941
:107BE0008854E089401CE08105980012E2892169EF
:107BF0008854E089401CE0810598E2892169885415
:107C0000E089401CE0813812E28921698854E089CA
:107C1000401CE081E28921698F54E089401CE081A9
:107C20000120287003E002203070052028704FE00A
:107C300000BF33462A4620460499FFF73CFF47E041
:107C400005202870F81D4005000E0190F81DC008A1
:107C5000801CC0B2E189884222D1206900780128C5
:107C60001ED1206941780198814219D12069801C78
:107C70000090002002900BE00098027802990C9886
:107C800042540098401C00900298401CC0B20290E0
:107C9000019902988842EFDB002030700FE018E075
:107CA000E089022809D120690078812805D121695D
:107CB0004878FDF78FFD307001E00520307007E057
:107CC0000520287004E0052028700620307000BFD1
:107CD00007E0002D01D005202870002E01D00220E1
:107CE000307007B0F0BDFFB583B01F460E9E0D9DEE
:107CF000039C2046FDF7E0FB002878D0002DFCD047
:107D0000002EFAD028780300FDF706FA05043A3B66
:107D1000428285000C9800282DD0002F2BDD7D207D
:107D20000001874227DC0020E0810220E2892169EE
:107D30008854E089401CE08105980012E28921699D
:107D40008854E089401CE0810598E28921698854C3
:107D5000E089401CE0813812E28921698854E08979
:107D6000401CE081E28921698F54E089401CE08158
:107D70000120287003E002203070052028704FE0B9
:107D800000BF33462A4620460499FFF794FE47E099
:107D900005202870F81D4005000E0190F81DC00850
:107DA000801CC0B2E189884222D120690078022873
:107DB0001ED1206941780198814219D12069801C27
:107DC0000090002002900BE00098027802990C9835
:107DD00042540098401C00900298401CC0B202908F
:107DE000019902988842EFDB002030700FE018E024
:107DF000E089022809D120690078822805D121690B
:107E00004878FDF7E7FC307001E00520307007E0AE
:107E10000520287004E0052028700620307000BF7F
:107E200007E0002D01D005202870002E01D002208F
:107E3000307007B0F0BDFFB583B01F460E9E0D9D9C
:107E4000039C2046FDF738FB00287ED0002DFCD097
:107E5000002EFAD00C980028F7D028780300FDF700
:107E60005BF905043D3E458D90000598C019012140
:107E7000090488422DD2002F2BDD7D2F29DC002024
:107E8000E0810320E28921698854E089401CE08177
:107E900005980012E28921698854E089401CE0813C
:107EA0000598E28921698854E089401CE08100201E
:107EB000E28921698854E089401CE081E1892069D8
:107EC0004754E089401CE081072030700120287071
:107ED00003E0022030700520287057E000BF3346D1
:107EE0002A4620460499FFF7E6FD4FE0052028705A
:107EF0007800801CE189884230D12069007803280D
:107F00002CD1780021694978884227D12069801CCA
:107F10000190002002901BE001980178401C0902AA
:107F20000190029842000C98815201980178401CFF
:107F30000190029842000C98805A01430298420036
:107F40000C9881520298401C00E020E0C0B20290E0
:107F50000298B842E0DB002030700EE0E089022891
:107F600009D120690078832805D121694878FDF777
:107F700031FC307001E00520307007E005202870EA
:107F800004E0052028700620307000BF07E0002DB7
:107F900001D005202870002E01D00220307007B0DB
:107FA000F0BDFFB583B01F460E9E0D9D039C20467D
:107FB000FDF782FA00287ED0002DFCD0002EFAD0EA
:107FC00028780300FDF7A8F805043B3C438B8E009E
:107FD0000598C0190121090488422BD2002F29DD00
:107FE0007D2F27DC0020E0810420E289216988546C
:107FF000E089401CE08105980012E28921698854DB
:10800000E089401CE0810598E28921698854E08973
:10801000401CE0810020E28921698854E089401CED
:10802000E081E18920694754E089401CE08101201A
:10803000287003E0022030700520287057E000BF50
:1080400033462A4620460499FFF735FD4FE00520C8
:1080500028707800801CE189884230D1206900783E
:1080600004282CD1780021694978884227D12069D9
:10807000801C01900020029019E001980178401CBA
:1080800009020190029842000C98815201980178EF
:10809000401C0190029842000C98805A01430298BB
:1080A00042000C9881520298401CC0B20290029883
:1080B000B842E2DB00E01BE0002030700EE0E08917
:1080C000022809D120690078842805D121694878DF
:1080D000FDF780FB307001E00520307007E00520DF
:1080E000287004E0052028700620307000BF07E0EB
:1080F000002D01D005202870002E01D00220307004
:1081000007B0F0BD08B50020009000F007F800BFF0
:10811000684600780028FBD008BD000072B603480E
:108120000078401C0149087070470000BD01002024
:1081300070B505462C46FFF7F1FF002C0BD02078D8
:10814000400006494018A04205D100BFFF20207022
:108150000020607000BF00F003F870BDB90100207E
:1081600005480078401E0449087008460078002839
:1081700000D162B670470000BD01002001460846EC
:10818000002810D002781201074BD21882420AD17F
:1081900000BFFF22027000224280521E8280002215
:1081A0008260C26000BF7047C815002010B5012171
:1081B0001A48FCF74EFD00282FD0002427E02001AC
:1081C0001749085CFF2820D02001401880881549F5
:1081D00088421AD02001124940188088401E21018F
:1081E0000F4A89188880200111464018808800288D
:1081F0000BD1401E2101891888802201084BD2181A
:1082000090682201D218D1688847601CC4B2052C3E
:10821000D5D301210148FCF7EDFC10BD000400405E
:10822000C8150020FFFF000010B50020FCF702FC7D
:108230000D490E48FCF7CEFD002801D0FEF7D2FC18
:108240000B490A48FCF7C6FD002801D0FEF716FDD1
:1082500008490648FCF7BEFD002801D0FEF700FDE6
:108260000020FCF7DBFB10BD0501050000380140D4
:10827000070107000601060010B500211B20FCF7CE
:10828000E5FB00211C20FCF7E1FB03210F20FCF79C
:10829000DDFB10BD72B605480068401C034908604C
:1082A000BFF34F8FBFF36F8F70470000B401002002
:1082B00008480068002802D172B600BFFEE70548F2
:1082C0000068401E0349086008460068002800D185
:1082D00062B67047B401002070B506463546002EE0
:1082E00016D0083D2C4600F0FFF86168094800E010
:1082F0000068026852688A42FAD302682260046009
:1083000005496068096840180349086000F0FCFAF4
:1083100070BD00009C010020AC010020012000077E
:1083200003494860BFF34F8FBFF36F8F7047000062
:1083300000ED00E010B5FBF737FD0120FBF760FE14
:10834000FBF7EAFE1649087008460078012822D19A
:108350000020FBF745FE01208002FBF77BFE012099
:10836000FBF75AF90120FBF745F90121090508112E
:10837000FBF796FE0120FBF77FFE00BF1920FBF7FD
:1083800003FE0028FAD00220FBF7B8FE00BFFBF77F
:108390001FFE0828FBD101210220FBF7C5FC10BD00
:1083A000C0000020FEB52048076805214156072976
:1083B00009D0082902D0092907D101E0002405E0ED
:1083C0000124240302E0194C00E000BF00BF16485E
:1083D00006214156012902D0022905D101E00026DB
:1083E00003E00126760300E000BF00BF0E48042131
:1083F0004156002904D0012904D0022908D104E003
:10840000002506E00125AD0203E003256D0200E032
:1084100000BF00BF01203346224639460095019037
:10842000002000F0AFF8FEBDF800002000100010A2
:1084300070B504460026002C1BD0104800680028A8
:1084400001D1012000E00020002802D172B600BF57
:10845000FEE700F049F80A48006805190948006875
:10846000001DFFF765F92846FEF776FA00F04CFA92
:108470000646002E01D1FFF751FF70BD8C01002090
:108480006C010020580100201FB5002000900190D1
:108490000290034680220EA103900F4800F0F8F8E6
:1084A0000446012C0DD172B60020C0430B49086070
:1084B00001200B49086000200A49086000F0CCF850
:1084C00004E0002C02D172B600BFFEE71FBD000021
:1084D00049444C4500000000A96A000888010020BA
:1084E000740100206C01002002480068401C014912
:1084F000086070478C0100201D480068002803D0E8
:1085000001201C49086032E000201A4908600BE095
:1085100019480068002802D172B600BFFEE716486D
:108520000068401E1449086013480068142148433D
:1085300012490858002801D1012000E0002000283D
:10854000E6D10D490968142251430C4A8818416844
:10855000496841600146083142688A4202D1416857
:10856000496841604168C968054A116000BF7047A9
:108570008C0100207C010020700100207804002084
:1085800058010020F0B587B007460C4615461E4638
:108590000194029503960C980490002006900C20FC
:1085A000059001A938460D9AFCF75CF907B0F0BDBB
:1085B00070B504460E463046FAF78DFE054629464C
:1085C000204600F00FF82A4631462068FAF73CFEB4
:1085D00020684019206070BD026811700268521C4A
:1085E0000260704710B50A46CB171B0E9B181B0480
:1085F0001B0E046823700268521C02600A46CB17E7
:108600001B0E9B181B121B02CB1A046823700268F6
:10861000521C026010BD1FB50446029800280DDDF3
:1086200020460299FFF7DEFF029A03992068FAF7C5
:108630000BFE20680299401820600BE0019800288A
:1086400004D020460199FFF7B3FF03E00021204644
:10865000FFF7C8FF1FBD000010B50B48006AFF21DF
:1086600009040843084908620846006AFF21090610
:10867000084305490862FEF799FA0020034908609B
:10868000FAF728FD002010BD00ED00E0B401002045
:10869000FFB583B016460C9D0398002802D172B630
:1086A00000BFFEE7052D01D2012000E000200028D8
:1086B00002D172B600BFFEE730460E99FEF776F99A
:1086C0000446002C62D0701E8000216B08180290B6
:1086D0000298C008C000029002984007400F00288E
:1086E00001D1012000E00020002802D172B600BFB5
:1086F000FEE700962A4620460F9B0499FEF7D8F91C
:10870000069A03990298FEF7B1FB20600D980028A5
:1087100001D00D980460FFF7BDFD25480068401C9E
:108720002349086023480068002808D121480460D4
:108730000846006801280DD1FEF7EAF90AE01E4854
:108740000068002806D11B480068C06AA84201D80A
:108750001848046019480068401C18490860084619
:108760000068E0631649E06A0968884202D9144942
:10877000E06A08601422E16A5143124A8818211DF8
:10878000FFF78DF90127FFF793FD01E00027FF4375
:10879000012F0AD108480068002806D00548006863
:1087A000C06AA84201D2FFF7B9FD384607B0F0BD54
:1087B000680100205801002074010020840100207D
:1087C0007001002078040020F8B500200090434894
:1087D0000068002874D142480068401C4049086085
:1087E00008460668002E1CD13E4800680068002834
:1087F00001D1012000E00020002802D172B600BFA4
:10880000FEE7384807683848006836490860364847
:10881000076036480068401C34490860FEF7AAF932
:1088200000BF3348006886423DD300BF2D48006832
:108830000068002801D1012000E00020002804D0B9
:108840000020C0432A4908602CE026480068C06820
:10885000C4686568AE4202D22548056022E0201D4A
:10886000FEF766FFA06A002803D020461830FEF706
:108870005FFF2049E06A0968884202D91D49E06A21
:1088800008601422E16A51431B4A8818211DFFF732
:1088900006F91A49E06A0968C96A8842C6D3012004
:1088A0000090C3E700BF15480068C06A1421484320
:1088B00011490858012808D90120009005E0FFE778
:1088C0000F480068401C0E4908600E4800680028E8
:1088D00001D0012000900098F8BD00008C0100201C
:1088E0006C0100205C01002060010020800100205C
:1088F0008801002070010020780400205801002029
:10890000780100207C01002070B500253148006806
:10891000002802D172B600BFFEE7FFF7BBFC2D486E
:108920000068401E2B4908600846006800284CD1AA
:1089300029480068002848D022E02848C068C46858
:1089400020461830FEF7F4FE201DFEF7F1FE244904
:10895000E06A0968884202D92149E06A0860142265
:10896000E16A51431F4A8818211DFFF798F81E49F4
:10897000E06A0968C96A884202D301201B4908607D
:1089800016480068002801D1012000E000200028DE
:10899000D3D017480068002810D00BE0FFF714FF71
:1089A000002802D001201149086011480068401ECB
:1089B0000F4908600E4800680028EFD10B48006896
:1089C000012802D10125FFF7A9FCFFF771FC284619
:1089D00070BD00008C01002068010020040500200B
:1089E0007001002078040020580100207C01002044
:1089F0007801002080004000000100020100020018
:108A0000040000000000080000000800000008004A
:108A10000000080000000400000004000000040042
:108A20000040000000000200000002000000020000
:108A30000000020000000200000204000004080020
:108A40000010020009020A030C01010101010101E9
:108A500000C1814001C0804101C0804100C181400E
:108A600001C0804100C1814000C1814001C08041FE
:108A700001C0804100C1814000C1814001C08041EE
:108A800000C1814001C0804101C0804100C18140DE
:108A900001C0804100C1814000C1814001C08041CE
:108AA00000C1814001C0804101C0804100C18140BE
:108AB00000C1814001C0804101C0804100C18140AE
:108AC00001C0804100C1814000C1814001C080419E
:108AD00001C0804100C1814000C1814001C080418E
