:020000040800F2
:10000000F8220020450100083F19000801100008EF
:1000100000000000000000000000000000000000E0
:10002000000000000000000000000000373200085F
:100030000000000000000000030100081133000868
:100040005701000857010008570100085701000830
:100050005701000857010008570100085701000820
:100060005701000857010008ED07000815080008AF
:10007000570100085701000857010008B133000874
:100080005536000857010008B1360008570100082E
:1000900057010008570100085701000857010008E0
:1000A00057010008570100085701000857010008D0
:1000B000413800080D3900085701000857010008B1
:1000C0000348854600F0D2F9004800471D45000866
:1000D000F8220020064B19680868203080F3098850
:1000E000022080F314883FBCAE4662B600BD00001B
:1000F00020010020EFF3108072B6704780F3108863
:100100007047EFF309800E4B1A6820381060F0C07A
:1001100044464D4656465F46F0C008B572B605F0F7
:1001200071F862B60CBC116808681030F0C8A046BF
:10013000A946B246BB4680F309882038F0C8184764
:10014000200100200448804704480047FEE7FEE7FE
:10015000FEE7FEE7FEE7FEE735330008C1000008D2
:1001600030B50B46014600202022012409E00D464F
:10017000D5409D4205D31D469540491B25469540D7
:1001800040191546521E002DF1DC30BD70B500241B
:100190002546002801DA01244042002901DA012520
:1001A0004942FFF7DDFFAC4200D04042002C00D0B6
:1001B000494270BD00487047F856000838B50446FB
:1001C000C0681821401E4843A16840183C2148439C
:1001D000616840183C2148432168451860690C213A
:1001E0004843216940186921C900401A3021FFF7AE
:1001F000CDFF114A50434219084600921A2902DBEA
:100200000E49511800910C21FFF7C0FF0C4A5043D2
:10021000009A801800900B4806E0491E425C074B8C
:100220005A43009BD21800920029F6DC214668460A
:1002300000F0AAF8009838BD801F860780510100A1
:100240008033E101FC56000803460B439B0703D0B3
:1002500009E008C9121F08C0042AFAD203E00B788B
:100260000370401C491C521EF9D27047D2B201E003
:100270000270401C491EFBD270470022F6E710B501
:1002800013460A4604461946FFF7F0FF204610BD04
:10029000421E5378521C002BFBD10B781370491C63
:1002A000521C002BF9D1704710B5044605E00B78BD
:1002B0000370401C002B00D0491C521EF7D2204670
:1002C00010BDCAB2401E4178401C8A4202D00029AB
:1002D000F9D100207047421C0178401C0029FBD155
:1002E000801A704703460A780270401C491C002A95
:1002F000F9D11846704730B505460020034600E0A6
:100300005B1C934205D2EC5CC85C201A01D1002C26
:10031000F6D130BD70B5104D002800D128680024FA
:1003200014E00A4602E09E4203D0521C1378002BD0
:10033000F9D1DAB2224307D0002B06D0002C04D02A
:1003400000210170401C04E00446401C0678002E89
:10035000E7D12860204670BD8801002070B50646B0
:1003600003F06EFD046805460A220021304600F0C5
:1003700045F82C6070BD000010B5024900F004F88B
:1003800010BD0000CC12002070B50C4600683C2166
:10039000FFF7E6FE21603C21FFF7E2FE61601821D5
:1003A000FFF7DEFE0546A1600721001DFFF7D8FE1E
:1003B000A1610F48A90008180E49FFF7D1FE0246B7
:1003C000443288086261E0613B2802D3910700D083
:1003D000401C0021084B0A462161995C814203D8E8
:1003E000401A521C2261F8E7401CE060204670BDB4
:1003F0006C0B0000B505000008570008F7B5009C1D
:100400000F4600262578641C002D05D0FFF7D2FE8C
:100410000068405DC007F5D12B2D02D02D2D18D0DE
:10042000641E39462046029A00F032F8002F04D0AC
:100430003968A14201D1009939607105022400296F
:100440000BDA4042002803DD03F0FAFC0460A00749
:10045000FEBD012080020643E3E70028F8DA03F03E
:10046000EFFC04600048FEBDFFFFFF7F064C012546
:10047000064E05E0E36807CC2B430C3C984710344C
:10048000B442F7D3FFF720FEF457000814580008D1
:10049000F7B582B0029C00272078641C15460197AE
:1004A000302802D0002D15D015E020780127641CDB
:1004B000782804D0582802D0002D09D00BE0002D58
:1004C00001D0102D07D1002710252078641C02E0F0
:1004D000082500E00A250026009610E00099012773
:1004E00069430818020C294680B2714300908E18A7
:1004F0003804864201D3012001902078641C2946EB
:1005000000F019F80028E9DA0398002805D0002F38
:1005100001D0641E00E0029C04600198002806D00F
:1005200003F08EFC02210160C81E05B0F0BD0099E9
:1005300030040843F9E73A2800D230382023024635
:100540009A43412A01D310463738884201D300200C
:10055000C043704770B58C180578401C6B075B0F63
:1005600001D10378401C2A1106D10278401C03E017
:1005700006780E70401C491C5B1EF9D12B0705D470
:100580000023521E0DD40B70491CFAE70378401C5F
:10059000CB1A921C03E01D780D70491C5B1C521E87
:1005A000F9D5A142D8D3002070BD00001CB5044687
:1005B000002C0BD18020009001216846017103219D
:1005C00041716946074800F099FC09E0012C07D108
:1005D00080200090002069460871024800F08EFCDF
:1005E0001CBD00000004004810B500F081FD10BDE6
:1005F00070B505460C46164606E028466A1C95B2BC
:1006000000F008F82070641C3046711E8EB200287D
:10061000F3D170BD70B50446002600F0E7FD254615
:10062000E117090E491909124900A031C8B200F0BA
:10063000A7FD00F00DFEE117090E49190912090284
:10064000611AC8B200F09CFD00F002FE00F0CEFD81
:10065000A12000F095FD00F0FBFD00F05BFD0646DB
:1006600000F0E0FD304670BD70B506460C461546FC
:100670000BE02178304600F00EF8701C86B2641C46
:10068000012D02DD032003F09DFD2846691E8DB279
:100690000028EED170BD70B504460E4600F0A6FDF0
:1006A0002546E117090E491909124900A031C8B2BF
:1006B00000F066FD00F0CCFDE117090E49190912A2
:1006C0000902611AC8B200F05BFD00F0C1FD3046BE
:1006D00000F056FD00F0BCFD00F0A4FD70BD000070
:1006E00000B589B00021334803F026F901213148D3
:1006F00003F014F900BF012189052E4803F090F999
:100700000028F8D000BF012149052A4803F088F9E4
:100710000028F8D000BF0121C903264803F080F962
:100720000028F8D001218903224803F079F9002834
:100730003ED100BF204800780028FBD1684601F078
:10074000CDFC1C4A91890098FFF70AFD40081B491F
:100750000860084600681A49884206D901201749EE
:100760000860D0201349888122E0144800681549A8
:10077000884206D902201149086013480D49888132
:1007800016E00E4800681149884206D903200B493B
:1007900008600F48074988810AE0084800680D4949
:1007A000884205D90420054908600B480149888121
:1007B00009B000BD0038014022000020E000002008
:1007C000B0AD01003075000071020000504600001D
:1007D000E204000028230000C409000010B5002135
:1007E000014803F09BF810BD00380140074800683D
:1007F00020210840002802D0002005490880034835
:1008000040682021084301494860704700000240C9
:100810001200002013480068012149060840002802
:100820000DD00020104908800E484068012149067B
:1008300008430C49486000200C49087010E0094842
:100840000068012149030840002809D00020084918
:100850000880044840680121490308430149486071
:10086000704700000000024012000020210000201C
:100870001E0000200168334A114001600021016020
:1008800041608160C1603049884208D12E490839F1
:1008900049680F2211432C4A083A516051E02A4915
:1008A0001431884208D1284908394968F022114397
:1008B000254A083A516044E023492831884209D149
:1008C0002149083949680F22120211431E4A083A89
:1008D000516036E01C493C31884209D11A49083937
:1008E00049680F2212031143174A083A516028E061
:1008F00015495031884209D11349083949680F22F6
:1009000012041143104A083A51601AE00E4964314A
:10091000884209D10C49083949680F221205114350
:10092000094A083A51600CE007497831884208D1F9
:100930000549083949680F2212061143024A083A4C
:1009400051607047FEFF000008000240002A03D0FB
:1009500003680B43036002E003688B430360704746
:1009600010B5002202680D4B1A400C6A8B682343B5
:100970000C6923434C6923438C692343CC6923438B
:100980004C6A23438C6A23431A430260CB6843605A
:100990000B6883604B68C36010BD00000F80FFFFD1
:1009A00070B504460D460C2221462048FFF7A3FCF3
:1009B00000281AD129461E48FFF794FC1DA11C48A7
:1009C000FFF766FC1A48FFF786FC1C4908700120F7
:1009D0001B49087001221B491B4803F052F800BF55
:1009E000174800780028FBD119E029461048FFF786
:1009F00079FC16A10E48FFF74BFC0D48FFF76BFC86
:100A00000E49087001200E49087001220D490E4858
:100A100003F037F800BF0A4800780028FBD1012016
:100A20000C4908700C49087070BD0000F0040020EB
:100A3000C40300204F4B0D0A0000000012000020EC
:100A4000210000200701070000440040466C61734C
:100A5000650D0A0023000020DC00002030B5A9B09D
:100A60000546A022344901A8FFF7EEFB3348007881
:100A7000002817D101203149087031A13448FFF70F
:100A800031FC0A20334908700120334908700122E3
:100A90003249334802F0F5FF00BF2F4800780028A4
:100AA000FBD147E02548007801281DD12D49087069
:100AB000FFF716FEFFF792FE002401E0601C84B2EF
:100AC00029488442FADB02201C490870012027498A
:100AD00008702149087000202549087000BF1E4891
:100AE00000780028FBD125E022480068012814D0B6
:100AF00002280DD0032806D004281AD115A901A870
:100B0000FFF74EFF15E01AA906A8FFF749FF10E00E
:100B10001FA90BA8FFF744FF0BE024A910A8FFF7BB
:100B20003FFF002005490870FF211348FFF7A5FB90
:100B300000BF00BF29B030BD04550008DC00002014
:100B40004454553A343835204F4B0D0A000000000C
:100B5000C40300201200002021000020070107002C
:100B60000044004022000020102700002300002045
:100B700018000020E0000020F004002070B50646B8
:100B8000002002F041FB012002F03EFB022002F0B7
:100B90003BFB032002F038FB042002F035FB00246D
:100BA00008E0002501E0681C85B21B488542FADB9D
:100BB000601C84B2642CF4DB002002F019FB0120DD
:100BC00002F016FB022002F013FB032002F010FBE0
:100BD000042002F00DFB11A11348FFF783FB12481C
:100BE000FFF779FB114908700120114908700122B3
:100BF0001049114802F045FF00BF0D480078002859
:100C0000FBD101200A4908700C490870FF210C48EB
:100C1000FFF733FB70BD000050C300004C4544207B
:100C20004F4B0D0A00000000C403002012000020FA
:100C3000210000200701070000440040230000209D
:100C4000F004002070B586B004460D463E4800789A
:100C5000002830D03D480078AA2806D0AA203B4979
:100C6000087001220320FFF7FFFC2146384803F0FB
:100C7000FBFE3849087038480078002806D000206C
:100C8000354908700120354908700DE0022D03D167
:100C900000203349087007E031480078022800D16D
:100CA00000E000202E4908702E480078042802D168
:100CB00001202C4908702748007801280BD1002119
:100CC000084604F047F90121084604F043F90A20D8
:100CD00003F078FA22E00021012004F03BF9012121
:100CE000002004F037F915E0072002F081FAFF2018
:100CF0002D3003F067FA072002F086FA7D2080018C
:100D000003F060FA03F0B4FB2146114803F0ACFE97
:100D1000104908700F4800780028E5D01248007884
:100D200001280FD11521684603F07EFA002805D06E
:100D3000684603F0F7FA064601F086FD00200A49EE
:100D4000087000BF06B070BD0100002087000020C1
:100D5000D00100200C0000200401002068010020C8
:100D600006010020070100206101002001B50120DB
:100D70003749087000203749087061E0354800782D
:100D800000285AD10A2234A13648FFF7B4FA0028C5
:100D900028D10121344802F0D8FD34A13548FFF7AD
:100DA000A1FA04203449088001202A490870012250
:100DB00032492D4802F065FE00BF26480078002821
:100DC000FBD12349087001202249087000202C49DA
:100DD000087001201E490870FF212A48FFF74DFACC
:100DE000002008BD082228A12648FFF784FA002821
:100DF00023D101211C4802F0A8FD26A11D48FFF7C0
:100E000071FA0D201C490880012012490870012246
:100E10001A49154802F035FEFF211A48FFF72DFA4E
:100E200001200B49087000BF0A4800780028FBD158
:100E30000120084908700220D3E70098401E009066
:100E4000009800289AD1024908700120C9E70000E3
:100E500023000020210000204454553A434F4E46C1
:100E60004947000077070020004400404F4B0D0A1F
:100E700000000000C403002012000020070107004A
:100E800027000020F00400204454553A54455354A0
:100E9000000000004454553A54455354204F4B0D24
:100EA0000A000000002806D00649096810221143F4
:100EB000044A116005E00349096810229143014A80
:100EC000116070470020024001460020044A10686B
:100ED0004008400002460A431046014A106070472D
:100EE000002002401CB5C020009001206946087116
:100EF000014800F003F81CBD00040048F0B50A46A4
:100F000000210023002400BF3DE001258D402B4639
:100F100015681D402C469C4234D11579012D02D014
:100F20001579022D16D185684F000326BE40B543C2
:100F3000856055794E00B540866835438560858863
:100F400001268E40B5438580858896798E40B6B25D
:100F50003543858005684F000326BE40B5430560D4
:100F600015794E00B540066835430560C5684F00E9
:100F70000326BE40B543C560D5794E00B540C6686E
:100F80003543C560491C1029BFD3F0BDF0B500231F
:100F900000244D07EE0E1546B5402B46CD10AE0091
:100FA00005462035AD594E07F70E0F26BE40B54316
:100FB000CE10B60007462037BD51CD10AE003D46DD
:100FC000AD591D432C46CD10AD003E467451F0BDC9
:100FD00002460020138A0B40002B01D0012000E0C4
:100FE0000020704702460020938A0B40002B01D05E
:100FF000012000E000207047018570478161704743
:1010000000BFFEE770B5FFB081B00646FF250024A3
:1010100003E0601C40A9085584B2FF2CF9DBFF22D5
:1010200040A90020FFF720FBFF2269460020FFF7C0
:10103000DFFA002420E040A8005D6946095D88428F
:1010400018D01EA12048FFF74DF90B201F4908704A
:1010500001201F49087001221E491F4802F011FD9E
:1010600000BF1B4800780028FBD101201B490870F5
:1010700017490870601C84B2FF2CDCDB18A11248F1
:10108000FFF730F908201149087001201049087055
:1010900001221049104802F0F4FC00BF0C4800780F
:1010A0000028FBD101200D49087009490870FF2173
:1010B0000E48FFF7E2F87FB001B070BD4932435FE0
:1010C000466C6173650D0A00C40300201200002005
:1010D00021000020070107000044004023000020F9
:1010E0004932435F4F4B0D0A00000000F00400201E
:1010F00010B5FFF7F7FE40210548FFF77FFF03F02B
:101100008BF880210248FFF779FF03F085F810BDC6
:101110000004004870B5002540211848FFF76CFF17
:1011200003F07AF880211548FFF768FF0120FFF7E8
:101130003DFA002419E003F06FF840210F48FFF753
:101140005DFF03F069F880210C48FFF741FF01289B
:1011500001D1012600E0002668003043C5B24021DD
:101160000648FFF749FF601CC4B2082CE3DB0020EF
:10117000FFF71CFA03F050F8284670BD0004004841
:10118000F8B50446264600251FE080203746074074
:101190007006060E40211448FFF72EFF03F03CF8BE
:1011A000802F04D180211048FFF728FF03E0802121
:1011B0000D48FFF721FF03F02FF840210A48FFF701
:1011C0001DFF03F029F8681CC5B2082DDDDB4021A6
:1011D0000548FFF711FF03F01FF880210248FFF7D1
:1011E0000DFF03F019F8F8BD0004004810B5802188
:1011F0000B48FFF703FF03F00FF840210848FFF703
:10120000FDFE03F009F880210548FFF7F5FE03F025
:1012100003F840210248FFF7EFFE02F0FDFF10BD8A
:101220000004004810B580210848FFF7E5FE02F0F1
:10123000F3FF40210548FFF7E1FE02F0EDFF8021BA
:101240000248FFF7DBFE02F0E7FF10BD0004004894
:1012500010B500240120FFF7A9F940210D48FFF740
:10126000CDFE02F0D9FF00E0641C80210948FFF7A1
:10127000AFFE012802D108488442F5D34021054839
:10128000FFF7BAFE02F0C8FF0020FFF78FF9002039
:1012900010BD0000000400488813000010B50020B5
:1012A00001F0A6FF012001F0A3FF022001F0A0FF42
:1012B000032001F09DFF042001F09AFF052001F0BA
:1012C00097FF10BD10B5002001F09EFF012001F036
:1012D0009BFF022001F098FF032001F095FF0420FE
:1012E00001F092FF052001F08FFF10BDF8B500243A
:1012F000002500270126012259490320FFF778F92C
:10130000324658490020FFF773F9082632465649FD
:1013100056480088FFF76CF9544800880830534954
:101320000880C8263246524950480088FFF760F9C5
:101330004E480088C8304D4908804D48407B002801
:1013400002D04B48407B00E078204A4908700C22CC
:1013500047494948FEF778FF00245EE04448005DB5
:10136000612805DB4248005D57384449485512E082
:101370003F48005D412805DB3D48005D37383F4967
:10138000485508E03A48005D302804DB3848005DE5
:1013900030383A4948553649601C085C61280FDBF3
:1013A0003648405D0007000E344948550846415D07
:1013B0002F4A601C105C573808183049485528E0FF
:1013C0002B49601C085C41280FDB2C48405D00075E
:1013D000000E2A4948550846415D254A601C105CAC
:1013E000373808182549485513E02149601C085C26
:1013F00030280EDB2148405D0007000E1F4948558C
:101400000846415D1A4A601C105C303808181B49B8
:101410004855681CC5B2A01CC4B20C2C9EDB00242D
:1014200014E00E26304603F0E9FAA100144A5050A9
:10143000A000115832460D480088FFF7D9F80B4834
:1014400000880E3009490880601CC4B20548007845
:101450008442E6DB14200549088001480078F8BD85
:101460008700002076000020780000207400002013
:101470003C060020800000208C000020810000201D
:10148000040700201CB504460020009003460246D5
:10149000E12149020190012003F0FAFE02F0BEFFB3
:1014A00001281DD122A12448FEF71CFF23A12248B8
:1014B000FEF7EEFE2048FEF70EFF224908700120DD
:1014C0002149087001222149214802F0DAFA00BFBF
:1014D0001D4800780028FBD101201B4908701CE042
:1014E00013A11548FEF7FEFE1AA11348FEF7D0FE21
:1014F0001148FEF7F0FE13490870012012490870E8
:1015000001221249124802F0BCFA00BF0E480078CE
:101510000028FBD101200C49087001200F490870F8
:1015200000200F490870FF210E48FEF7A6FE1CBDE3
:1015300033474D2000000000C40300204F4B0D0A2C
:101540000000000012000020210000200701070019
:1015500000440040466C6173650D0A0023000020C2
:1015600027000020F004002030B50246002300BF11
:101570000846CD176D0E2D18ED11ED014D1BECB287
:10158000CD176D0E2D18E911002901DD80200443CF
:1015900018465B1C14540029EADC184630BD0000D4
:1015A000401C802801DA401C0BE00121890388429D
:1015B00001DA801C05E00349884201DAC01C00E022
:1015C000001D7047FFFF1F00F0B585B005460E46B1
:1015D000144604950020039002900027401E0190BD
:1015E000204600F0BFF807460090FFF7D9FFB04251
:1015F00003DD0120C0430190A8E00021684601738B
:10160000F02103988843103003906846017B04A8BA
:1016100003F068FE39460498FFF7A6FF04994018C6
:101620000490207A042808D14AA104A803F046FEB9
:10163000042104A803F056FE07E048A104A803F023
:101640003DFE032104A803F04DFE00206946087208
:10165000022102988843A17E4900022211400843DA
:101660000290042102988843E17E002901D00121E3
:1016700000E00021890004221140084302900298F2
:101680004007C00F002813D01821029888433D213D
:10169000095DC900182211400843029020210298D8
:1016A00088433C21095D49012022114008430290F2
:1016B000206C002802D1A06C002804D08021029860
:1016C000884380300290E06C002802D1606D0028D1
:1016D00004D0402102988843403002906846017A45
:1016E00004A803F0FFFD218B04A803F001FE04A869
:1016F00063692269E16803F014FEE07E00280BD0E4
:1017000004A8E36AA26A616A03F00BFE04A8A36B53
:10171000626B216B03F005FE02980006C00F0028E3
:1017200005D004A8A36C626C216C03F0FAFD02984A
:101730004006C00F002805D004A8636D226DE16C3F
:1017400003F0EFFD0498401B019000BF019805B025
:10175000F0BD00004D515454000000004D5149733C
:101760006470000070B504460025207A032801D17A
:101770000C2503E0207A042800D10A25626921693A
:10178000E06800F0CFF8801C4519E07E00280DD0FD
:10179000E26AA16A606A00F0C5F8861CA26B616B00
:1017A000206B00F0BFF83018801C4519206C002811
:1017B00002D1A06C002806D0A26C616C206C00F0F5
:1017C000B1F8801C4519E06C002802D1606D00283A
:1017D00006D0626D216DE06C00F0A4F8801C451904
:1017E000284670BD70B504460D460E222946204697
:1017F00000F071F870BDFFB587B005460F461C4676
:10180000169E0695002005900490039000962046B1
:1018100012A90EC900F04EF804900290FFF7C0FE26
:10182000B84203DD0120C043039040E0F021059859
:101830008843303005900821059888430999C900EC
:10184000082211400843059006210598884361004D
:101850000622114008430590059840084000109961
:10186000C907C90F084305906846017D06A803F023
:1018700039FD04990698FFF777FE069940180690FF
:1018800006A812A90EC903F04CFD002C03DD06A822
:10189000119903F02DFD324615990698FEF7D4FCF8
:1018A0000698801906900698401B039000BF039885
:1018B0000BB0F0BD7FB50546089E002401A807C8FF
:1018C00000F030F8801C80190419002D00DDA41CE4
:1018D000204604B070BDFEB504460D4616460020F5
:1018E0000190471E0094022D01DA871E18E00021A6
:1018F00068460171F021019888433101F0221140BE
:10190000084301906846017903F0ECFC002100983F
:10191000FFF72AFE0099401800900098071B00BFAF
:101920003846FEBD37B500240098002804D0009842
:10193000FEF7D1FC044600E0019C20463EBD704706
:1019400000218278002A27D0184A03231B02D218CC
:1019500003789B109B00D15802789207D30EFF2288
:101960009A400B469343194642789207120E037829
:101970009B07DB0E9A4011430C4A03231B02D2182B
:1019800003789B109B00D1500278D306DB0E012216
:101990009A40064B1A6007E00278D306DB0E01225C
:1019A0009A40024B80331A607047000000E100E06B
:1019B000F0B585B005460C4617460020039002900E
:1019C0000190FC4802F0F2F829886054FA48007847
:1019D000002811D1F948007802280EDA207844282E
:1019E0000BD12888401C288028880C28F1D102209F
:1019F000F24908700020288087E2F0480078022829
:101A00000FDAEF48007800280BD10120EC4908706C
:101A100010200223EB4AE74928310090EA4802F0FF
:101A2000C3F92888205C682801D10020288020780C
:101A30006828E1D1288800287EDD2888401C28807D
:101A40002888401E205C1628D6D1288861788842D4
:101A5000D2D1002606E0A15D03980818C0B2039019
:101A6000701CC6B26078801EB042F4DC2888801EEC
:101A7000215C0398814275D10020D4490870CE4979
:101A800008700120D24908700220D24908708021D4
:101A9000D148FFF7A7FA002803D0012001F0A8FBE6
:101AA00002E0012001F0B0FB0021CC48C078C20167
:101AB0008218CB488154CB480078002802D11F20DF
:101AC000C8490870A07801280CD0A078022809D055
:101AD000C2480079C149C978884203D10020BF4972
:101AE000C8700871A078022828DDA0780D2825DAB2
:101AF00060780D38C1B2BA480B3881720321B748FB
:101B0000C278B74829388154002001900EE001982E
:101B1000C01C215CB148C078C2018218B0481218BC
:101B2000019811540198401CC0B20190AC480B3888
:101B3000817A0198814200E0E4E1E8DCA0780300CA
:101B400002F070F914140B15363E464E565E666E62
:101B5000767E8698AABDD0E3FC14A24800780228BD
:101B600001D101E0B8E100209E4908708BE102201C
:101B70009C49087000209C490870042615E0A05D6F
:101B800000280DD0F01EC2B29748801C0199425423
:101B9000A25D8030019942540198401CC0B201906E
:101BA000914901984870701CC6B2822EE7DB6AE149
:101BB00001218A48C078420089481538815262E183
:101BC00007218648C07842008548153881525AE17D
:101BD00008218248C078420081481538815252E17C
:101BE00027217E48C07842007D48153881524AE15D
:101BF00028217A48C078420079481538815242E15C
:101C000017217648C07842007548153881523AE16C
:101C100018217248C078420071481538815232E16B
:101C200015216E48C07842006D48153881522AE16E
:101C300019216A48C078420069481538815222E16A
:101C40001A216648C07842006548153881521AE169
:101C5000012163480B388172E3216048C07842005B
:101C60005F481538815201215C48C2785C482938A8
:101C7000815408E101215A480B388172E421574808
:101C8000C078420056481538815201215348C27825
:101C9000534829388154F6E0012151480B388172AC
:101CA000FF2191314D48C07842004D48153881528E
:101CB00001214A48C2784A4829388154E3E0012189
:101CC00047480B388172FF2190314448C078420068
:101CD00043481538815201214048C278404829388C
:101CE0008154D0E001213E480B388172FF218F31B1
:101CF0003A48C07842003A481538815201213748A5
:101D0000C278374829388154BDE0E078102826D0C1
:101D100006DC02283BD0042831D008283FD126E039
:101D2000202814D040280AD0802838D1E7212B4819
:101D3000C07842002A481538815230E056E0C92167
:101D40002648C078420026481538815227E0E9210C
:101D50002248C07842002248153881521FE0CB212A
:101D60001E48C07842001E481538815217E0EB210A
:101D70001A48C07842001A48153881520FE0ED2108
:101D80001648C078420016481538815207E0EF2106
:101D90001248C078420012481538815200BF00BF77
:101DA00001210F480B3881720C48C2780C48293841
:101DB000815468E0004400400901002067010020D0
:101DC0000401002076080020440002406301002046
:101DD00008010020070100200008004872070020C9
:101DE000A10A00200601002076090020E0781028D2
:101DF00022D006DC022834D004282BD0082837D182
:101E000021E0202811D0402808D0802830D1E821B6
:101E10003F48C07842003F48815229E0CA213C48EF
:101E2000C07842003B48815222E0EA213848C0781D
:101E30004200384881521BE0CC213548C07842002E
:101E40003448815214E0EC213148C07842003148D6
:101E500081520DE0EE212E48C07842002D4881527B
:101E600006E0F0212A48C07842002A48815200BF8B
:101E700000BF012127480A3081722548C2782548D1
:101E80001438815400BF00BF00200390A078B870C0
:101E90005520F870002606E0B95D03980818C0B216
:101EA0000390701CC6B2042EF6DB03983871A0783C
:101EB000012824D0A078022821D01548C078FF2816
:101EC00006DA1348C078401CC0B21149C87000E05F
:101ED00000200F49C87012E000200390A078B8706D
:101EE000AA20F870002606E0B95D03980818C0B271
:101EF0000390701CC6B2042EF6DB039838710120E3
:101F000005B0F0BD2888401C28800020F8E70000BC
:101F1000720700208C0A0020002807D007490968B2
:101F2000FF2201321143054A116006E003490968A6
:101F3000FF2201329143014A116070470070004056
:101F400010B524480078152823D006DC002809D0D5
:101F500001281FD002283AD119E01F2818D03028B4
:101F600035D118E01B4804781B4800791A49C97814
:101F700088420BDA1F242146184802F0AFFB1849AB
:101F80000880214616480088FEF75CFE1FE000BF6F
:101F900000BF00BF00BF13480078002801D01524FF
:101FA00001E00C48047821460C4802F097FB0C49EC
:101FB000088008460088002805D021460848008887
:101FC000FEF740FE02E000200249087000BF00BF9B
:101FD00010BD00000601002072070020D001002083
:101FE0000E00002004010020002905D0054A526996
:101FF0000243044B5A6104E0024A52698243014B96
:102000005A61704700100240002905D0054AD26984
:102010000243044BDA6104E0024AD2698243014B75
:10202000DA61704700100240002905D0054A1269A4
:102030000243044B1A6104E0024A12698243014BD5
:102040001A61704700100240002905D0054AD26885
:102050000243044BDA6004E0024AD2688243014B37
:10206000DA607047001002401948006801210843F7
:1020700017490860084640681649084014494860F6
:10208000084600681449084011490860084600687D
:102090000121890488430E490860084640683F21B1
:1020A000090488430A4948600846C06A00090001DB
:1020B000C8620846006BFF21543188430449086315
:1020C0000846406B40084000486300208860704725
:1020D000001002400CB8FF08FFFFF6FEFEB50446F4
:1020E00000250026002002900190009000277048F3
:1020F00040680C2108400546002D06D0042D07D06D
:10210000082D08D00C2D2CD128E06A4820602BE047
:102110006848206028E0664840680F21890408402C
:102120000646634840680321C90308400290B00C8A
:10213000861C0298002803D15F48374647430BE0CE
:102140005B48C06A0007000F401C01905948019984
:10215000FEF706F870430746276005E05748206001
:1021600002E05448206000BF00BF51484068F021A1
:10217000084005462D095248405D009021680098AE
:10218000C14061604A48406807210902084005468D
:102190002D0A4B48405D009061680098C140A160E5
:1021A0004348006BFF2101310840884202D0454876
:1021B000E0600DE03E484068012189030840884204
:1021C00003D0A0684008E06002E0A0688008E060FA
:1021D0003748006B40210840402802D03A4820612F
:1021E00002E00120C00320613148006B102108404B
:1021F000102802D02F48606101E0206860612C48FF
:10220000006B8007800F002802D1A068A06119E050
:102210002748006B8007800F012802D12068A06149
:1022200010E02348006B8007800F022802D1800352
:10223000A06107E01E48006B8007800F032801D1D2
:102240001C48A0611A48006B0321090408400028BB
:1022500002D1A068E06120E01548006B0321090469
:10226000084001210904884202D12068E06114E09D
:102270000F48006B032109040840012149048842EA
:1022800002D18010E06108E00948006B03210904D5
:102290000840884201D10748E0610548006B802171
:1022A0000840802802D00548206200E02762FEBD79
:1022B0000010024000127A0000093D00006CDC02B0
:1022C00010010020809FD5001280000010B502464A
:1022D0000021002300205111002902D10C4C236859
:1022E0000BE0012902D10A4C236A06E0022902D13F
:1022F000074C636A01E0064C636BD106C90E0124EA
:102300008C401C40002C01D0012000E0002010BDBA
:1023100000100240024840680C210840704700004D
:102320000010024001460020054A5068F023024692
:102330009A43104602460A431046014A50607047CD
:10234000001002400021024A9170114688707047C7
:10235000001002400849096A49084900064A11620A
:102360001146096A04229143034A11621146096A1F
:102370000143116270470000001002400146002036
:10238000064A506807231B0202469A43104602463B
:102390000A431046014A5060704700000010024096
:1023A000002807D007490968012212061143054A8F
:1023B000116006E003490968012212069143014AAF
:1023C0001160704700100240074A52687B23DB030C
:1023D0009A43054B5A601A46526803460B431A4308
:1023E000014B5A607047000000100240002807D0DF
:1023F0000749096A0122D2031143054A116206E026
:102400000349096A0122D2039143014A11627047CC
:10241000001002400249096A0143014A11627047F3
:102420000010024001460020044A506880088000E5
:1024300002460A431046014A5060704700100240AD
:1024400038B5002000900024002500BF1120FFF7C0
:102450003DFF05460098401C0090052109030098A7
:10246000884201D0002DF1D01120FFF72FFF002866
:1024700001D0012400E00024204638BD014600BF01
:10248000F020084000110A23584302460807000FB5
:102490008018C0B270470146002204E0501CC2B24E
:1024A00008460A38C1B20A29F8DA1007000E0843B4
:1024B0007047000010B501210807FFF7A5FD0120B6
:1024C000FFF72AFD0120FFF745FF00BF2120FFF79E
:1024D000FDFE0028FAD0FF200130FFF79BFFFF2010
:1024E000054908607F20054908600120FFF77EFF4D
:1024F00000F0E4F910BD0000680000206400002036
:1025000008B50022009200200021124AD268402320
:102510001A40002A1BD1421E0E4BDA6000BF0D4A42
:10252000D26840231A401146009A521C00921B02A6
:10253000009A9A4201D00029F1D0064AD26840237D
:102540001A40002A01D0012002E0002000E0012012
:1025500008BD0000002800400348C068802188436F
:102560000149C860704700000028004070B5064669
:102570000C46002513484068134908400546FF20D3
:1025800000042840000CE0701F2000022840000AD0
:102590006070A806800EA070072040032840400B02
:1025A0002070002E0DD1E078FFF768FFE0706078B2
:1025B000FFF764FF6070A078FFF760FFA0702078DD
:1025C000207070BD002800403FFFFF0070B5064638
:1025D0000C460025124800681249084005463F2075
:1025E00000042840000C20707F2000022840000AD0
:1025F00060706806400EA070012080052840000C25
:10260000E070002E0BD12078FFF738FF2070607843
:10261000FFF734FF6070A078FFF730FFA07070BD47
:10262000002800407F7F7F0030B504460025CA2087
:102630001249486253204862FFF762FF002800D128
:1026400017E00E488068402188430C49886008469E
:1026500080682168084309498860A06808610846C5
:102660000069A1880904084304490861FFF774FF61
:102670000125FF2001494862284630BD002800405E
:1026800008B5014600200090044800908800009A98
:10269000801800900098006808BD00005028004095
:1026A000F8B505460C46002600200090002D08D104
:1026B000607810210840102803D1607888430A30E0
:1026C0006070002D00D108E06078FFF7D7FE064665
:1026D000A078FFF7D3FE064600BF002D0BD0E078B0
:1026E0000004617809020843A1780843217849036E
:1026F0000843064610E0E078FFF7CDFE0704607857
:10270000FFF7C9FE00020743A078FFF7C4FE0743A6
:102710002078400307433E46CA20134948625320AD
:102720004862FFF7EDFE002801D1009016E00F4847
:1027300030400D494860FFF70FFF0B4880682021AB
:102740000840002808D100F0B9F8002801D1009015
:1027500004E00120009001E001200090FF200249E8
:1027600048620098F8BD0000002800403FFFFF00CD
:10277000F8B505460C46002600200090002D0AD131
:102780002F48806840210840002800D002E0002047
:10279000E07000BF0EE02A48806840210840002811
:1027A00004D02078FFF76AFE064602E00020E070C1
:1027B00000BF00BF002D0BD0207800046178090213
:1027C0000843A1780843E17809040843064610E06D
:1027D0002078FFF760FE07046078FFF75CFE0002D8
:1027E0000743A078FFF757FE0743E078000407434C
:1027F0003E46CA201249486253204862FFF780FED5
:10280000002801D1009016E00E4830400C490860C5
:10281000FFF7A2FE0A48806820210840002808D15E
:1028200000F04CF8002801D1009004E00120009055
:1028300001E001200090FF20014948620098F8BDA6
:10284000002800407F7F7F0011B585B0FFF732FE82
:102850001748006801901748006802900020009017
:102860006846FFF7E1FE05A8FDF786FD0446002156
:102870006846C174217A0174217941742178817488
:1028800004A90020FFF774FF217E68460173217BB5
:102890008173217C4173217DC17303A90020FFF75F
:1028A000FFFE0549002000F03FF806B010BD000013
:1028B0006400002068000020F032000008B500220B
:1028C000009200200021174A926820231A40002A13
:1028D00001D0012025E0CA22124B5A6253225A62CB
:1028E0001A46D268A0239A430E4BDA6000BF0D4A05
:1028F000D26820231A401146009A521C00929B0273
:10290000009A9A4201D00029F1D0064AD2682023C9
:102910001A40002A01D0012000E00020FF22014BD4
:102920005A6208BD0028004008B500220092044AFF
:1029300000928200009BD2180092009A116008BD9C
:1029400050280040F0B5D3B0FF21013113A8FDF7A6
:1029500094FC012003900121FE4800F0F6FF0122C3
:10296000FD49FC4801F08DF800BFFC4800780028C4
:10297000FBD10121F74800F0E8FF0120F74908707A
:102980000020F74908700120F6490870F648FDF765
:10299000A2FC801E0246F449029013A8FDF754FCE5
:1029A0000822F2A113A8FDF7A6FC00281CD1F2A171
:1029B000F348FDF797FC0420F24908800120E7491D
:1029C00008700122F049E34801F05BF800BFE348DA
:1029D00000780028FBD10120E04908701420EB4961
:1029E0000880002053B0F0BD0322E9A113A8FDF731
:1029F00082FC00287ED10024E648E7A1026809A8ED
:102A000001F0FCF909A8FDF766FCC5B2DC4908191C
:102A100009A9FDF767FC6019C4B2D9490819DFA1FB
:102A2000FDF736FC601CC4B2002108A80171D9482A
:102A300004228256D8A109A801F0E0F909A8FDF7FF
:102A40004AFCC5B2CE49081909A9FDF74BFC60192B
:102A5000C4B2CB490819D1A1FDF71AFC601CC4B25D
:102A6000002108A80171CB4805228256CAA109A8F5
:102A700001F0C4F909A8FDF72EFCC5B2C049081938
:102A800009A9FDF72FFC6019C4B2BD490819C3A1FB
:102A9000FDF7FEFB601CC4B2002108A80171BD480F
:102AA00006228256BCA109A801F0A8F909A8FDF7E1
:102AB00012FCC5B2B249081909A9FDF713FC601947
:102AC000C4B2AF490819B6A1FDF7E2FBA01CC4B21D
:102AD000AC4804800120A14908700122AA499D4800
:102AE00000F0CFFF00BF9D4800780028FBD10120F7
:102AF0009A4900E001E0087074E70322A9A113A835
:102B0000FDF7F9FB00287DD10024A748FDF7E3FB82
:102B1000C5B20C2D04DD01DD0C2000E02846054681
:102B20006019C4B2A0499648FDF7DCFB944800192F
:102B30009AA10A78027049784170601CC4B20021E1
:102B400008A801719848027B93A109A801F056F9E1
:102B500009A8FDF7C0FBC5B28949081909A9FDF705
:102B6000C1FB6019C4B2864908198CA1FDF790FB1E
:102B7000601CC4B2002108A801718B48427B86A169
:102B800009A801F03BF909A8FDF7A5FBC5B27C49EE
:102B9000081909A9FDF7A6FB6019C4B278490819FC
:102BA0007EA1FDF775FB601CC4B2002108A801716D
:102BB0007D48C28978A109A801F020F909A8FDF78C
:102BC0008AFBC5B26E49081909A9FDF78BFB60198C
:102BD000C4B26B49081971A1FDF75AFB601CC4B25D
:102BE000002108A80171664908196F491031FDF7E5
:102BF00079FB6D481030FDF76EFBC5B26019C4B2A9
:102C00005F4900E05DE0481964A1FDF741FB601CED
:102C1000C4B2654840300422825E5FA109A801F079
:102C2000EDF809A8FDF757FBC5B25549081909A9E0
:102C3000FDF758FB6019C4B25149081957A1FDF7B7
:102C400027FB601CC4B2002108A801714C49081977
:102C500055494631FDF746FB53484630FDF73BFBEF
:102C6000C5B26019C4B2464948194CA1FDF710FB22
:102C7000601CC4B2424908194B496731FDF732FB69
:102C800049486730FDF727FBC5B26019C4B23C491B
:102C9000081943A1FDF7FCFAA01CC4B2394804800E
:102CA00001202E490870012237492A4800F0E9FE28
:102CB00000BF2A4800780028FBD10120274908706E
:102CC00090E636A113A8FDF725FB0646307808905C
:102CD0000898312804D032287ED0332867D1F8E014
:102CE0002EA10020FDF716FB06463046FDF736FB09
:102CF0002849086029A10020FDF70CFB0646304654
:102D0000FDF72CFB40B22349087124A10020FDF7F8
:102D100001FB06463046FDF721FB40B21D494871D4
:102D20001EA10020FDF7F6FA06463046FDF716FB19
:102D300040B218498871082214480088FDF794FCB5
:102D4000124800880830114908800BA10C48FDF793
:102D5000C9FA2DE0004400400501050021000020D3
:102D60002700002023000020F004002046696E693F
:102D700073680D0A000000004F4B0D0A00000000B0
:102D8000C403002012000020070107007400002087
:102D900031317C0078000020256400007C000000B8
:102DA0000D0A000031327C003C06002014E01BE1DB
:102DB00004208F49088001208E49087001228E4925
:102DC0008E4800F05EFE00BF8A4800780028FBD1E4
:102DD00001208849087008E1C7218948FDF74DFAAC
:102DE00088A10020FDF796FA064631468448FDF793
:102DF00079FA84A10020FDF78DFA06463046FDF7EA
:102E0000ADFA7F4908737FA10020FDF783FA0646DB
:102E10003046FDF7A3FA7A4948737AA10020FDF7FE
:102E200079FA06463046FDF799FA7549C88175A1C9
:102E30000020FDF76FFA0646314671481030FDF765
:102E400051FA70A10020FDF765FA06463046FDF7FD
:102E500085FA01B26A48403081806AA10020FDF7FE
:102E600059FA0646314666484630FDF73BFA65A1F9
:102E70000020FDF74FFA0646314661486730FDF7FE
:102E800031FA61A10020FDF745FA0646C8225C49E7
:102E90005E480088FDF7E8FB5C480088C8305B4965
:102EA00008805B495B48FDF71DFA04205049088003
:102EB00001205049087001224F49504800F0E1FDBF
:102EC00000BF4C4800780028FBD101204949087018
:102ED0008BE04CA10020FDF71DFA06463046FDF7B9
:102EE0003DFA0746002002905AE046A10020FDF777
:102EF00011FA064601960198FDF730FA41B268468C
:102F000001742C210198FDF7DCF9401C0190019817
:102F1000FDF724FA41B2684641742C210198FDF76F
:102F2000D0F9401C01900198FDF718FA01B26846EB
:102F300041822C210198FDF7C4F9401C01900198B1
:102F4000FDF70CFA41B2684601752C210198FDF796
:102F5000B8F9401C019005A801300199FDF7C2F9AC
:102F60000E2204A929480088FDF77EFB0E2003905D
:102F7000039801F043FD02998900274A50500298B6
:102F80008000115821480088039AFDF731FB1F4843
:102F900000880E3081B21D4801800298401C0290CA
:102FA0000298B842A1DB1D480078C0191B4908707F
:102FB00001220020FDF758FB15491648FDF792F94C
:102FC00004200B49088001200A49087001220A499F
:102FD0000A4800F056FD00BF064800780028FBD1E3
:102FE00001200449087000E000BF00BF00BFF9E401
:102FF00012000020210000200701070000440040CB
:103000003C0600207C0000000A0000007400002044
:10301000782D0008C403002004070020760000205B
:10302000FEB504460E461546A1004D4A505800F024
:10303000B9FCA1004B4A5158A2004B4B9A5811437E
:103040000122114308461146FEF7CEFFA100474A70
:1030500050580121FEF7D8FF454B1A5D454B195DCD
:10306000A300454FF858FDF791FF444B1A5D444BC0
:10307000195DA300434FF858FDF788FF012D08D1D3
:10308000414B1A5D414B195DA300414FF858FDF7C4
:103090007DFF60003F49085A009002216846017197
:1030A00003214171002181710121C171A100324AC6
:1030B00050586946FDF722FF60003749085A0090D2
:1030C000A100304A50586946FDF718FF012D11D173
:1030D00060003249085A00900221684601710321BC
:1030E000417100218171C171A100294A505869467E
:1030F000FDF704FFA1001A4A5058314600F0E2FCE7
:10310000012D17D1A100164A5058012100F029FCC9
:10311000A100134A5058290200F051FDA100104AA5
:103120005058290200F055FDA1000D4A50580021C9
:1031300000F025FCA1000A4A5058012100F005FCCE
:10314000A100074A50580122402100F021FCA100B3
:10315000034A50580122802100F01AFCFEBD0000F5
:10316000BC000020DC540008E4540008D4540008DB
:10317000FE540008F8540008C40000200055000860
:10318000FA540008CC00002002550008FC54000846
:10319000D4000020EC540008F0540008F454000857
:1031A0001CB50446A1000F4A50580121FEF71CFF30
:1031B00060000D49085A0090012168460171002104
:1031C0008171C17103214171A100084A50586946BB
:1031D000FDF794FE60000449085AA100034A5158C3
:1031E00088611CBDB4540008A45400089C00002051
:1031F0004100034A515A8200024B9A581185704788
:10320000A45400089C0000204100034A515A820047
:10321000024B9A5891617047A45400089C0000200A
:1032200038B504460D46684604704570012181702A
:10323000FEF786FB38BD70470CB50020019000906A
:10324000314800680121090408432F49086000BF84
:103250002D48006801214904084000900198401C55
:1032600001900098002804D10521090301988842A3
:10327000EED125480068012149040840002802D009
:103280000120009001E0002000900098012839D131
:1032900011201E4908601C4840681B4948600846C8
:1032A00040684860084640687F21C9038843164942
:1032B00048600846406811210904084312494860E3
:1032C000084600680121090608430F49086000BF4D
:1032D0000D4800680121490608400028F8D00A4836
:1032E000406880088000084948600846406802211C
:1032F00008430549486000BF034840680C21084066
:103300000828F9D10CBD0000001002400020024046
:1033100010B5FCF7EFFE044602F024F8002803D0B5
:1033200001200007024948602046FCF7E7FE10BD77
:1033300000ED00E010B51B48006801210843194961
:103340000860084640681849084016494860084621
:1033500000681649084013490860084600680121C2
:10336000890488430F490860084640683F210904E2
:1033700088430C4948600846C06A00090001C862D9
:103380000846006BFF21543188430649086308460C
:10339000406B40084000486300208860FFF74CFF06
:1033A00010BD0000001002400CB8FFF8FFFFF6FE51
:1033B00010B50121880700F0DDF900287ED0012139
:1033C000880700F0A0F98D480078401C8B490870F0
:1033D0008B480088401C8A4908808A480078002869
:1033E0000FD189480068401C87490860084600687A
:1033F0008649884205D90020834908600120814917
:1034000008708348007801280DD182480078401C5C
:103410008049087008460078022804D1002008700E
:1034200002207B4908707C48007800285ED07B48E9
:103430000088401C7949088008460188784800784F
:103440006422504381420ADB76480078002806D186
:1034500072490880488001207249087008E072486B
:103460000078002804D000206F4908706B4908805C
:103470006E480078002820D068488088401C674942
:1034800088806A480078022806D1012067490870C0
:1034900000206249888010E0604880886449884242
:1034A0000BDD60480078002807D15C498880012046
:1034B0006049087015205B49087000E099E05E489B
:1034C0000078002812D05D480068401C5B49086005
:1034D000084600685A49884208D9524800780028AE
:1034E00004D15649086030204E4908704A48007897
:1034F000022806D100204949488003204649087027
:103500003BE045480078032822D144484088401CCD
:10351000424948804B48407800280DD04148007807
:10352000002809D102204149087015203D49087042
:1035300000204449487020E0384840884249884289
:103540001BDD00203549488004203349087014E011
:1035500031480078042810D13A48407800280CD12E
:1035600030480078002808D1022030490870152022
:103570002C490870012033494870344800780028ED
:103580003BD032480078012819D131480088401CCE
:103590002F49088008460088642810D10020088040
:1035A000012149020920C006FDF71CFD002803D0B7
:1035B0000520FFF71DFE02E00520FFF725FE23484A
:1035C0000078022819D122484088401C20494880B0
:1035D00008464088322810D1002048800121490245
:1035E0000920C006FDF7FEFC002803D00520FFF7E8
:1035F000FFFD02E00520FFF707FE10BD6E01002071
:1036000074010020610100207C01002000EB4100DA
:1036100063010020660100200701002076010020E0
:103620008000002006010020050100206801002024
:103630002F75000008010020690100208001002092
:103640001FBF0200720700201C0C00003800002081
:103650007001002010B50121054800F08BF800280A
:1036600005D00121024800F04EF801F0DDFC10BD4C
:10367000000400403EB504460D4601212020FEF71F
:10368000C3FC0194684605800021418001816946A0
:10369000064800F097F801221146044800F07DF832
:1036A0000121024800F032F83EBD00000014004045
:1036B00010B501210E4800F05DF8002817D0012157
:1036C0000B4800F020F80B48007801280FD10A4879
:1036D0000088401C0849088008460088074988423D
:1036E00005DD00200449088003200249087010BD50
:1036F00000140040670100206A010020B80B0000A0
:10370000CA4302827047CA4302827047002904D02C
:10371000028801231A43028003E00288014B1A4009
:1037200002807047FEFF00003EB504460D460121B1
:103730000846FEF769FC0194684605800021418037
:10374000018169460120800700F03CF80122114602
:10375000900700F022F801218807FFF7D7FF3EBD50
:1037600002460020138A0B40002B01D0012000E00C
:103770000020704730B50246002000230024158A3F
:103780000D402B4695890D402C46002B03D0002C74
:1037900001D0012000E0002030BD002A03D0838941
:1037A0000B43838102E083898B4383817047000050
:1037B0000288034B1A40028002880A430280704745
:1037C000F7FF000000220288154B984206D0012323
:1037D0009B07984202D0134B984203D1124B1A40D8
:1037E0004B881A43114B984203D0114B1A400B8956
:1037F0001A4302804B68C3620B880385084B9842CA
:1038000008D00C4B984205D00B4B984202D00B4B82
:10381000984201D18B7A038601238382704700008E
:10382000002C0140000400408FFF00000010004009
:10383000FFFC0000004001400044014000480140FE
:1038400070B5002525480078022843D02449254832
:1038500000F0F0F800281AD023480488601C224A9F
:1038600010802248015D1F4800F0A5F91E4800881D
:103870001F490988884230D100221949194800F0AF
:1038800000F900201B4908701749088025E01A49F3
:10389000144800F0CFF800281FD0184AD11FF8397B
:1038A0001748FEF785F8002817D0164840681649D3
:1038B0000840144948600620886008464068012195
:1038C00008431049486080200649886000200C4960
:1038D000088002E0034800F087F970BD670100200E
:1038E000070107000044004016000020C403002028
:1038F00012000020210000200501050076080020AC
:103900001C00002040000240FEFF000010B50248ED
:1039100000F06AF910BD000000480040002905D001
:10392000426801231B051A43426004E042680123F8
:103930001B059A4342607047426803235B059A4324
:10394000426042680A4342607047002904D002681E
:1039500001231A43026003E0026852085200026029
:103960007047002905D0826801239B031A438260B7
:1039700004E0826801239B039A4382607047826857
:103980000123DB039A43826082680A4382607047A6
:10399000002A03D083680B43836002E083688B4373
:1039A0008360704710B504461948844209D101214B
:1039B0008803FEF749FB002101208003FEF744FB4A
:1039C00025E01448844209D101214804FEF72CFB6C
:1039D000002101204004FEF727FB18E00E48844236
:1039E00009D101218804FEF71FFB0021012080047A
:1039F000FEF71AFB0BE00948844208D10121C804F4
:103A0000FEF712FB00210120C004FEF70DFB10BDE4
:103A1000003801400044004000480040004C004095
:103A200002460020D3690B40002B01D0012000E0AA
:103A30000020704770B502460B4600240021002587
:103A400000201E04350ED9B201268E403146012DCC
:103A500002D11668314006E0022D02D1566831408D
:103A600001E0966831401C0C0126A6403446D66918
:103A70003440002903D0002C01D0012000E00020B8
:103A800070BDF8B5034600240026009600250020EE
:103A900018460E04340ECEB200960127009EB740A1
:103AA0003D46022C01D1001D02E0032C00D108305C
:103AB000002A03D006682E43066002E00668AE4383
:103AC0000660F8BDF0B58BB004460D460027002017
:103AD0000A900026206840084000206066680321A4
:103AE0000903304688430646A86806436660266890
:103AF0002A480640E968686808432969084306437C
:103B00002660A66803210902304688430646686994
:103B10000643A66001A8FEF7E1FA2148844202D1DB
:103B200007980A9007E01F48844202D108980A903B
:103B300001E003980A9020680121C9030840002889
:103B40000CD029680A9A5000FCF70AFB074629683E
:103B50000A9A5000FCF704FB0E4609E029680A980F
:103B6000FCF7FEFA074629680A98FCF7F9FA0E46B0
:103B700028684008B04200D87F1C20680121C90392
:103B80000840002806D03807460F38460649084046
:103B900030430746A7810BB0F0BD0000F3E9FFFFFB
:103BA0000038014000440040F0FF00000146888CCE
:103BB000C005C00D7047CA05D20D02857047026866
:103BC0001F235B059A43026002684B051A4302609B
:103BD000704702681F231B049A43026002680B04AB
:103BE0001A4302607047000070B505465E492846DA
:103BF000FFF720FF00287DD02846FFF7D7FFC4B28B
:103C00003E2C11D159480470002059490870594977
:103C100008705949088059490870594908700021AD
:103C20002846FFF792FE7CE051480078002807D034
:103C3000514801880088401C4F4A10804B4844542A
:103C40004C480078401C4B4908704E4800780D28BD
:103C500056D10A2C54D108460078012850DD4A4834
:103C60000078002825D145480078401C4349087059
:103C70000846007845490978884203D101203C492B
:103C800008703DE03D48017840480078401C814282
:103C900036D1002036490870364908703649088008
:103CA000364908703649087000212846FFF74DFE56
:103CB00026E032480078401C3049087008460078F9
:103CC00032490978884203D101202949087017E058
:103CD0002A4801782C480078401C814210D10020ED
:103CE0002349087023490870234908802349087034
:103CF000234900E016E0087000212846FFF725FE62
:103D00002348007801280AD1002019490870194970
:103D1000087019490880194908701E490870194827
:103D2000047000BF1C492846FFF784FE002819D004
:103D30001A480488601C194A10801948015D2846F9
:103D4000FFF739FF1548008816490988884209D1CC
:103D5000002211492846FFF794FE00200F490880F1
:103D60000749087070BD000005010500F00400203F
:103D70002300002020000020180000202600002042
:103D8000210000202500002028000020270000201E
:103D9000DC000020220000200701070016000020A0
:103DA000C403002012000020FFB58BB00C4615465E
:103DB0001E46149F01210846FEF716F90B98FCF7E2
:103DC00059FD0094019502970396002004908020ED
:103DD000059000200690079008900120400309906C
:103DE00000200A9069460B98FCF7BAFD01220221D7
:103DF0000B98FCF7ABFD0FB0F0BD00000FB410B591
:103E000004A9074B02AA039800F02EF8044602A961
:103E1000002000F0D1F9204610BC08BC04B01847BF
:103E2000B941000830B47446641E2578641CAB4266
:103E300004D3635D5B00E31830BC18471D46F8E708
:103E4000004870479401002002E008C8121F08C112
:103E5000002AFAD170477047002001E001C1121F0B
:103E6000002AFBD170470000FFB58FB00546002641
:103E700006E025280AD0129A119990476D1C761CED
:103E800028780028F5D1304613B0F0BD0024029404
:103E90000121B54A009400E004436D1C2B780846CC
:103EA000203B98401042F7D128782A280ED00222D1
:103EB000287801463039092916D802990A2359432E
:103EC0003039401814436D1C0290F1E7109802C875
:103ED00002911090002904DA012040030443484273
:103EE0000290022004436D1C28782E2817D104204C
:103EF000044368786D1C2A280CD110986D1C02C8E8
:103F0000009110900BE000990A225143303940187B
:103F10006D1C00902878014630390929F3D928789A
:103F20006C2810D006DC4C281AD068280ED06A28DD
:103F300017D104E0742813D07A2812D110E00120A0
:103F4000400504430CE00121090501E003210905B6
:103F50000C436978814203D10120000524186D1CAF
:103F60006D1C2878692874D006DC00288BD0632863
:103F700027D0642806D16CE06E2808D073282CD096
:103F8000752878D0129A11999047761C5FE06002EC
:103F9000400F022809D003280DD00428109801688A
:103FA0000DD00E60001D109051E01098F2170168BE
:103FB0000E604A60F6E7109801680E80F2E70E7016
:103FC000F0E710986A4601781173001D10900020E8
:103FD000507303A80190012005E0109802C80191D8
:103FE00010900020C04361070CD5002700E07F1C23
:103FF00000998F420FDA8742F9DB0199C95D0029E8
:10400000F5D108E0002700E07F1C8742FCDB019926
:10401000C95D0029F8D102982146C01B0290129B6D
:10402000119A00F0B3F88019C61907E001980199B8
:104030000078491C0191129A119990477F1EF5D280
:104040002146129B119A029800F090F886196D1C77
:1040500016E70A200190109901C910916102490FD9
:10406000032900D100B2042900D140B2002803DAAC
:1040700040422D2103E00DE0210504D52B216A46A5
:104080001173012103E0E10711D02021F7E70CAF04
:104090000C9114E00A200190109901C9109161025D
:1040A000490F032900D180B2042900D1C0B20021F8
:1040B000EDE70199FCF754F830317F1E3970002884
:1040C000F7D104A8C01B20300190600704D501205F
:1040D00000048443009801E0012000900199884287
:1040E00001DD401A00E00020411800900C980918EA
:1040F0000298401A0290E00306D42146129B119ABE
:10410000029800F043F8861900200D9008E003A9FA
:10411000085C129A119990470D98401C761C0D90DE
:104120000C998842F3DBE0030CD52146129B119ACF
:10413000029800F02BF8861904E0129A30201199A9
:104140009047761C0099481E00900029F5DC05E098
:104150003878129A7F1C11999047761C0199481E55
:1041600001900029F4DC6BE709280100F8B504464A
:1041700000251E461746880404D405E03946202051
:10418000B0476D1C641EF9D52846F8BDFFB504463E
:10419000002581B01E46C80301D5302700E0202746
:1041A000880404D505E038460399B0476D1C641EA9
:1041B000F9D5284605B0F0BD0A68531C0B60107095
:1041C000704700003EB5044601211020FDF71CFF9A
:1041D0000F4869460880600001900E48FFF7F2FA28
:1041E00008210C48FFF7E4FA01210A48FFF788FA92
:1041F00001210848FFF78AFA00BF01210548FFF7AF
:10420000AFFA0028F9D001210248FFF779FA3EBD44
:10421000BF5D000000100040072000BF0146421EA5
:10422000D0B20029FAD1704770B505460C46104946
:1042300000230322C8690FA100F0ACFC002800D1C4
:1042400070BD0B4900230122086A0EA100F0A2FCF8
:10425000002800D1F4E722210D48FCF732F8461C73
:10426000221F31462846FCF71FF80120E8E700002E
:104270003C0000202B514E54503A20302C2232303A
:10428000000000002B43434C4B3A2022000000006A
:10429000F004002070B51D490323012208681CA109
:1042A00000F078FC0446012C2ED120211A48FCF79E
:1042B00008F8451C2846FCF751F8184908800846BC
:1042C0000088632804D100240220154908701BE0EF
:1042D00012480088062803DA02201149087013E00A
:1042E0000E4800880A2803DA01200D4908700BE007
:1042F00000200B4908700420FEF77AFF0620FEF725
:1043000077FF0520FEF780FF204670BD3C000020AF
:104310002B4353513A200000F00400203A000020C3
:104320003800002030B58DB00446002504E0605D03
:1043300030386055681CC5B2112DF8DB20780A2191
:104340004843643061784018C1B208A8C173E0786E
:104350000A21484321794018401EC1B208A8417380
:10436000A0790A214843E1794018C1B208A88173B5
:10437000607A0A214843A17A4018C1B208A80174A2
:10438000207B0A214843617B4018C1B208A84174D0
:10439000E07B0A214843217C4018C1B208A88174FF
:1043A000007C029008A8407C019008A8807C0090C6
:1043B00008A8807B039008A8407B049008A8C07BD5
:1043C00005906846FBF7FAFE014908600DB030BD64
:1043D0007000002010B58EB00DA90020FEF7F6F891
:1043E0000CA90020FEF7C2F808A8007D039008A8D9
:1043F000407D029008A8807D019008A8807C0490F0
:1044000008A8407C059008A8C07C069001A8FBF78E
:10441000D5FE044620460EB010BD000010B50620A3
:10442000FEF7F2FE0E490323012208680DA100F0F9
:10443000EBFB01240DE001E0002010BDA100084AC3
:1044400050580023012209A100F0DEFB0028F3D020
:10445000641C042CEFDB00F04DF80120EDE70000B8
:104460003C0000202B4353513A2000004F4B0000EA
:1044700070B503240125FF214D311748FBF7FDFEE0
:10448000002016490870164908701649087004E0A3
:10449000FFF700FF012800D100242046641E0028F9
:1044A000F6D1012413E001250EE0A1000E4A505878
:1044B000002301220DA100F06DFB002803D10C4860
:1044C000FFF780FE00E00025002DEED1641C072CD4
:1044D000E9DB012070BD0000F00400202000002076
:1044E00023000020260000203C0000204F4B00004D
:1044F000B80B000010B50020FEF7C2F8064988424C
:1045000008D101210807FDF77FFD0120FDF704FD1B
:10451000FEF7D4F910BD0000F03200001CB50024F5
:1045200000F0F2FD00F0E4FC00F0D0FD00F03AFDF8
:10453000FF21E0315A48FFF7F7F8FF21E0315848F2
:10454000FFF798F8012000210B460A4600910190E0
:104550004B21C901002000F09BFEFCF745F8FF202D
:10456000F530FFF72FFEFCF7C1FEAA2801D100F0BD
:1045700003FEFFF7BFFF01224A494B48FFF781FACC
:104580000020009003460246E121490201900120EB
:1045900000F07EFE012243494448FFF772FA1020E2
:1045A0000223434A4149283100904248FFF7FCFB6F
:1045B000002041494870C8708870087102203F4946
:1045C000087000203E4908803E49087001213648A5
:1045D000FFF7BBF901218807FFF798F868213A48EF
:1045E00001710621001D41701621417101203749DA
:1045F000087054E03548007803282FD1FEF704FEF8
:104600000420FEF701FEFFF733FF31490870152142
:104610003048FFF709FE2F48FFF784FE0546FEF7F6
:1046200013F90320FEF7E4FD0420FEF7E1FD01226B
:104630001C491D48FFF725FA10200223224A121DAB
:104640001949283100901B483C38FFF7ADFB00208A
:104650001A49087004201D49087020E01B480078A2
:10466000042802D1FDF76CFC19E0184800780228F4
:1046700015D1FCF727FE1848FCF778FB0446002C00
:1046800004D100BFFEF75EF90028FBD1FCF72EFE37
:1046900000F072FDFCF702FE03200C490870A9E748
:1046A000E703000005010500004400400048004009
:1046B000C403002080000240720700200701002090
:1046C000180000200200002072080020670100206E
:1046D0000100002098010020FFFF5F02F3B589B0C0
:1046E00004460025B8A103C908910790B84A07CA33
:1046F00004AB07C3002600200290032204A9204631
:10470000FBF7A2FD0622B349601DFBF79DFD0A9849
:10471000302801D1032000E00A98E072FFF75AFE2A
:1047200003900398010E6846017103980002010E80
:104730006846417103980004010E68468171039830
:10474000C1B26846C171042201A920460C30FBF7B2
:104750007BFD0120207400206074A074E0749E48EA
:104760000068401C9C4908600A9815283ED004DC6B
:10477000012807D002287DD15DE01F287BD030289A
:10478000F9D106E014263012E070267130460BB0E5
:10479000F0BD00202075012060750020A0750B2061
:1047A000E0758E480088002801D18D4800908B4824
:1047B0000088632803D18A480F38009008E08748B2
:1047C00000884000713801210904401880B200902F
:1047D000009800122076009860761A263012E07059
:1047E000267101207F4908703046D0E77E48007866
:1047F00000281ED000202075012060750020A075C3
:10480000E0752076607679480078042803D07748F0
:104810000078012802D10020A07601E00120A076D6
:104820001B263012E070267101206E490870304658
:10483000ADE70020ABE71425002229466D1C625429
:10484000012229466D1C6254002229466D1C6254C7
:10485000012229466D1C6254002229466D1C6254B7
:104860006348427829466D1C6254027829466D1CC3
:10487000625401E0A6E041E0027829466D1C6254D2
:10488000002229466D1C6254012229466D1C625487
:10489000002729E0564802782846691C8DB2225428
:1048A00000222846691C8DB2225401222846691C28
:1048B0008DB2225400222846691C8DB222544C48E5
:1048C000801CC25D2946681C85B2625400222846BD
:1048D000691C8DB2225446488230C25D2846691C4C
:1048E0008DB22254781C87B241484078B842D1DC5E
:1048F0002E463012E0702671304648E73D48807AF7
:104900002075152500273DE03B48017939481E38C0
:10491000425C2846691C8DB22254354802782846EC
:10492000691C8DB2225401222846691C8DB2225482
:1049300031480079C10141182E480B300818C25D7A
:104940002846691C8DB222542B4800794100294821
:104950000A38405A02122846691C8DB22254264851
:104960000079410023480A38425C2946681C85B218
:1049700062546019042201A9FBF766FC281D85B268
:10498000781C87B21B48807AB842BDDC2E463012B4
:10499000E0702671184800791749C978884203DB0E
:1049A00015480079FF2805DA13480079401C1249A0
:1049B000087102E0002010490871012009490870BF
:1049C0003046E4E600BFE2E63A9EC900000100007E
:1049D000F4550008810000200C0100203A0000205E
:1049E0008FFF0000050100200801002007010020C2
:1049F00076090020960A002072070020F0B50B30DF
:104A0000C108C900144F0026144A0FE003688B4206
:104A10000BD38B4205D95C1A4318456830C3083B59
:104A200000E04368136002C004E0021D1068002823
:104A3000ECD13046002803D13868002801D000208E
:104A4000F0BD064A06481060064A121AD208D20083
:104A500044C001203860D7E7900100208C0100207D
:104A6000FC120020F81E0020F0B5ADB006460F463F
:104A70005822354917A8FBF7E7FB00201490159042
:104A800016902022304958310CA8FBF7DDFB00209E
:104A9000099008904B25ED00079700242B480B90B8
:104AA00030300421415E0A91002029490874081D14
:104AB0001A901A981490FFF7EDFB0A990B9800F0E2
:104AC000B3F908900898002802DC00202DB0F0BD52
:104AD0000A2110A88186012118A881751B4836304B
:104AE000279021302A90042118A8017117AA29467D
:104AF0001848FCF769FD044617A11498FBF7C8FB9A
:104B000007980596069014A807C802AB07C30020B3
:104B10000090291B0F4A0190101900231A46FCF738
:104B20006AFE0419291B0B4A1019FCF75BFE0419D5
:104B30002146084800F0AEF909900998002801D1F3
:104B40000120C3E70020C1E7005600084C06002002
:104B500088000020741000202F7500000B490968A0
:104B60000968002901D1012100E00021002904D0B9
:104B70000021C943064A116006E004490968C96872
:104B8000C868034A41681160704700002401002092
:104B900050010020F8B504460D4616461F46214632
:104BA0001248FBF79FFB12A11048FBF771FB0F485F
:104BB000FBF791FB0F4908800F4806700F480770FC
:104BC00001210F48FEF7C1FE00F058F82846FBF718
:104BD00082FB0246294600900A48FBF78CFB00281E
:104BE00001D10120F8BD0020FCE70000C403002033
:104BF0000D0A0000120000202700002028000020DD
:104C000000480040F0040020F8B504460D46164662
:104C10001F4621461248FBF765FB12A11048FBF71F
:104C200037FB0F48FBF757FB0F4908800F4806700A
:104C30000F48077001210F48FEF787FE00F06AF861
:104C40002846FBF748FB0246294600900A48FBF736
:104C500052FB002801D10120F8BD0020FCE7000034
:104C6000C40300200D0A00001200002027000020CD
:104C70002800002000480040F004002010B5032464
:104C800024060020FEF7C0FA0120194908701948CF
:104C900000681949084017490860184800884860AA
:104CA0000846006801210843124908608020144921
:104CB000886000BF0E4800780028FBD101200C4915
:104CC000087001220F490E48FEF7DBFE09E020467E
:104CD000641E002805D1064908700BA10C48FBF79B
:104CE00001FB034800780028F1D1FEF781FA10BDDE
:104CF0002100002080000240FEFF00001200002082
:104D000000480040050105004572726F720D0A00EF
:104D1000F004002010B5032424060120FEF774FAE5
:104D2000012019490870012218491948FEF7A9FE07
:104D300000BF154800780028FBD100BF402114486F
:104D4000FEF76EFE0028F9D001200F4908700122FD
:104D500010490F48FEF795FE0DE0601E04000AD1D1
:104D60000DA10F48FBF7BEFA0EA10D48FBF790FA14
:104D7000002005490870044800780028EDD1012082
:104D8000FEF736FA10BD00002100002007010700E1
:104D900000480040050105004552524F52000000F6
:104DA000F00400200D0A0000F8B504460D46164632
:104DB000324621460E48FBF747FA0E48068001208E
:104DC0000D49087001210D48FEF7BFFDFFF756FFA2
:104DD0002846FBF780FA07463A4629460848FBF77B
:104DE0008AFA002801D10120F8BD0020FCE700006C
:104DF000C4030020120000202700002000480040CB
:104E0000F004002010B501231A4602A102A0FFF70A
:104E1000C1FE10BD4F4B000041542B5153534C4326
:104E20004C4F53453D30000030B593B004460D461D
:104E300001A8002815D02B4622460CA1FEF7DEFF64
:104E40000023012210A101A8FFF7A4FE002805D12C
:104E5000FFF7D8FF00200E49086002E001200C494E
:104E600008600B48006813B030BD000041542B515E
:104E700053534C4F50454E3D312C312C302C222574
:104E800073222C25642C3200434F4E4E4543540070
:104E90008401002070B505460C460026A2B207A189
:104EA0002846FFF781FF002800D10226FFF7AAFF5E
:104EB000002800D10326304670BD00004E4F20432D
:104EC000415252494552000001460A694B688868C0
:104ED00098608B68486858605068884201D188683B
:104EE0005060002008611068401E10601068704714
:104EF0001CB501212F204004FDF776F810480090E2
:104F000003216846017169460E48FBF7F7FF0E481A
:104F1000009003216846017169460C48FBF7EEFFDB
:104F2000F020009003216846017169460848FBF7AC
:104F3000E5FF00212F204004FDF756F81CBD0000BE
:104F40003813000000040048FB030000000800487C
:104F50000014004870B505460C461148007800283A
:104F600002D101200E490870002D02D0012D14D16C
:104F700009E0002C03D00320FEF746F902E00320ED
:104F8000FEF736F90AE0002C03D00220FEF73CF9C8
:104F900002E00220FEF72CF900E000BF00BF70BD68
:104FA0001000002010B50020FEF7FAF80120FEF7EF
:104FB000F7F80220FEF7F4F80320FEF7F1F80420DA
:104FC000FEF7EEF80520FEF7EBF80620FEF7E8F80E
:104FD0000720FEF7E5F80020FEF70AF90120FEF7AA
:104FE00007F90220FEF704F90320FEF701F9042077
:104FF000FEF7FEF80520FEF7FBF80720FEF7F8F8AD
:10500000FF202D30FFF7DEF80720FEF7FDF810BD7A
:1050100042684A6093688B60936859609160086148
:1050200003685B1C0360704724480078002819D08F
:1050300022488088401E21498880084680880028B0
:105040003BD11F4908701D4840881C4988801D4974
:105050001A484181002019498871087003201A49B3
:1050600008702AE015488079002826D01348408926
:10507000401E81B211484181408900281DD110484D
:1050800000780A280CDD0F490C48418100200B49AB
:10509000887103200C4908700020094908700CE051
:1050A00007480078401C06490870064903484181BA
:1050B0000020024988710449087070475407002095
:1050C00002010020DC0500000001002010B50121D4
:1050D0001C20FEF7A5F802210A20FEF7A1F8022104
:1050E0000B20FEF79DF800211D20FEF799F8032103
:1050F0001020FEF795F802210F20FEF791F802210B
:105100001220FEF78DF810BD10B5FCF7ADFF0120A1
:10511000FDF718F9FDF794F916490870084600786C
:10512000012822D10020FDF7FDF801208002FDF7C3
:1051300025F90120FBF7C8FE0120FBF7B3FE012192
:1051400009050811FDF740F90120FDF729F900BF15
:105150001920FDF7BBF80028FAD00220FDF762F90C
:1051600000BFFDF7D7F80828FBD101210220FCF78A
:105170004BFF10BD00000020FEB520480768052148
:105180004156072909D0082902D0092907D101E091
:10519000002405E00124240302E0194C00E000BFD4
:1051A00000BF164806214156012902D0022905D127
:1051B00001E0002603E00126760300E000BF00BF07
:1051C0000E4804214156002904D0012904D00229A7
:1051D00008D104E0002506E00125AD0203E0032527
:1051E0006D0200E000BF00BF012033462246394671
:1051F00000950190002000F04BF8FEBD78000020E3
:10520000001000101D480068002803D001201C4930
:10521000086032E000201A4908600BE01948006875
:10522000002802D172B600BFFEE716480068401E93
:10523000144908601348006814214843124908586B
:10524000002801D1012000E000200028E6D10D490E
:105250000968142251430C4A881841684968416022
:105260000146083142688A4202D14168496841607A
:105270004168C968054A116000BF704754010020A9
:105280004401002038010020AC0F00202001002044
:10529000F0B587B007460C4615461E4601940295A8
:1052A00003960C980490002006900C20059001A90C
:1052B00038460D9AFDF7B4FE07B0F0BD70B5044650
:1052C0000E463046FBF707F805462946204600F013
:1052D0000FF82A4631462068FAF7B6FF20684019D1
:1052E000206070BD026811700268521C0260704735
:1052F00010B50A46CB171B0E9B181B041B0E046827
:1053000023700268521C02600A46CB171B0E9B18C2
:105310001B121B02CB1A046823700268521C026025
:1053200010BD1FB50446029800280DDD20460299E5
:10533000FFF7DEFF029A03992068FAF785FF2068DD
:105340000299401820600BE00198002804D0204604
:105350000199FFF7B3FF03E000212046FFF7C8FFE4
:105360001FBD0000F8B500200090434800680028E9
:1053700074D142480068401C4049086008460668ED
:10538000002E1CD13E4800680068002801D1012091
:1053900000E00020002802D172B600BFFEE73848C6
:1053A000076838480068364908603648076036485C
:1053B0000068401C34490860FFF7D0FB00BF334849
:1053C000006886423DD300BF2D4800680068002871
:1053D00001D1012000E00020002804D00020C043BB
:1053E0002A4908602CE026480068C068C4686568DF
:1053F000AE4202D22548056022E0201DFFF764FD81
:10540000A06A002803D020461830FFF75DFD204930
:10541000E06A0968884202D91D49E06A08601422DE
:10542000E16A51431B4A8818211DFFF7F1FD1A4913
:10543000E06A0968C96A8842C6D301200090C3E7C0
:1054400000BF15480068C06A142148431149085834
:10545000012808D90120009005E0FFE70F48006807
:10546000401C0E4908600E480068002801D0012049
:1054700000900098F8BD0000540100203401002085
:1054800024010020280100204801002050010020B4
:1054900038010020AC0F0020200100204001002036
:1054A00044010020400080000002000100010002D1
:1054B00004002000000008000000080000000800B0
:1054C00000000800000002000000020000000400CC
:1054D00000000200000002000000040000000200C2
:1054E00000000800000002000000080004000004A2
:1054F0000800000802000200020A030B010101017A
:10550000010101014454553A3438352039363030E0
:1055100000000000000000004454553A34383520A3
:105520003139323030000000000000004454553A58
:1055300034383520333834303000000000000000AB
:105540004454553A3438352031313532303000004A
:10555000000000003438352039363030200000009B
:1055600000000000000000003438352031393230AE
:10557000302000000000000000000000343835201A
:1055800033383430302000000000000000000000FC
:105590003438352031313532303020000000000001
:1055A000000000004454553A343835000000000033
:1055B00000000000000000004454553A4932430006
:1055C0000000000000000000000000004454553AB4
:1055D00033474D0000000000000000000000000004
:1055E0004454553A4C4544000000000000000000BF
:1055F0000000000000360100000000000000000074
:105600004D51544300000000040000000000000061
:1056100000000000000000003C0001004D51545704
:10562000000000000000000000000000000000007A
:10563000000000000000000000000000000000006A
:10564000000000000000000000000000000000005A
:10565000000000000000000033613965633930301C
:105660003030303100000000000000000000000079
:1056700000000000000000404040404040404040EA
:105680004141414141404040404040404040404015
:105690004040404040404005020202020202020235
:1056A00002020202020202202020202020202020CC
:1056B000200202020202020290909090909010103C
:1056C00010101010101010101010101010101010DA
:1056D000101002020202020288888888888808085E
:1056E000080808080808080808080808080808083A
:1056F0000808020202024000775600081F1C1F1E05
:105700001F1E1F1F1E1F1E1F1F1D1F1E1F1E1F1FB0
:105710001E1F1E1F41542B514346473D226E777377
:1057200063616E736571220041542B5153534C4396
:1057300046473D227365636C6576656C222C312C7F
:105740003000000041542B5149435347503D312C08
:10575000312C22554E494E4554222C22222C2222F5
:105760002C31000041542B514944454143543D31B3
:105770000000000041542B51494143543D31000089
:1057800041542B514E54503D312C223138322E3958
:10579000322E31322E3131222C31323300000000D2
:1057A00041542B5153534C4346473D2273736C76FF
:1057B000657273696F6E222C312C340041542B4377
:1057C000434C4B3F0000000041542B5153534C437A
:1057D00046473D2263697068657273756974652216
:1057E0002C312C30584646464600000041542B438D
:1057F00053510000145800080000002098010000D8
:105800005405000884580008980100206021000019
:10581000583E00082103300101693113EC571B0881
:1058200064041A44041A74041AA0041AC8041A2836
:10583000041A80041ABC041A14040110021314057B
:1058400011696F742F1208BA480421C90412441A4E
:1058500040063A400C6920C90851135D0A14080536
:1058600010140885140C10087D0B90F9E02C02032D
:1058700004040540060708097A0255011A1AFF01B7
:045880000110000013
:04000005080000C12E
:00000001FF
